:020000040000FA
:100000000C9466000C948E000C948E000C948E0060
:100010000C948E000C948E000C948E000C94AC29E1
:100020000C948E000C948E000C948E000C948E0018
:100030000C948E000C948E000C948E000C948E0008
:100040000C94602A0C948E000C942E2A0C94082A8E
:100050000C948E000C948E000C948E000C948E00E8
:100060000C948E000C948E00303132333435363798
:10007000383941424344454600000000240027002F
:100080002A0000000000250028002B0004040404BE
:100090000404040402020202020203030303030332
:1000A000010204081020408001020408102001020F
:1000B00004081020000000080002010000030407EB
:1000C00000000000000000000200AA2A11241FBE48
:1000D000CFEFD8E0DEBFCDBF11E0A0E0B1E0E0E8B7
:1000E000F9E502C005900D92AC3AB107D9F722E0CC
:1000F000ACEAB1E001C01D92A338B207E1F710E00D
:10010000C6E6D0E004C02197FE010E945C2BC536F4
:10011000D107C9F70E94F52A0C94BE2C0C9400005C
:100120009B012D5F3F4FFB015191BF01FC014191AC
:10013000CF01541305C062177307A9F781E0089532
:1001400080E00895AF92BF92CF92DF92EF92FF923C
:100150000F931F93CF93DF936C017B018B01040FEF
:10016000151FEB015E01AE18BF08C017D10759F08B
:100170006991D601ED91FC910190F081E02DC601CD
:100180000995892B79F7C501DF91CF911F910F91C7
:10019000FF90EF90DF90CF90BF90AF900895FC015B
:1001A000538D448D252F30E0842F90E0821B930BDC
:1001B000541710F0CF96089501970895FC01918D82
:1001C000828D981761F0A28DAE0FBF2FB11D5D9685
:1001D0008C91928D9F5F9F73928F90E008958FEF27
:1001E0009FEF0895FC01918D828D981731F0828DDB
:1001F000E80FF11D858D90E008958FEF9FEF089532
:10020000FC01918D228D892F90E0805C9F4F821B95
:1002100091098F73992708958AEC91E00E9400015B
:1002200021E0892B09F420E0822F089580E090E0FE
:10023000892B29F00E940C0181110C940000089573
:10024000FC01A48DA80FB92FB11DA35ABF4F2C914B
:10025000848D90E001968F739927848FA689B78942
:100260002C93A089B1898C91837080648C93938D39
:10027000848D981306C00288F389E02D80818F7DDC
:1002800080830895EF92FF920F931F93CF93DF9394
:10029000EC0181E0888F9B8D8C8D98131AC0E889C2
:1002A000F989808185FF15C09FB7F894EE89FF8991
:1002B0006083E889F98980818370806480839FBF2F
:1002C00081E090E0DF91CF911F910F91FF90EF902F
:1002D0000895F62E0B8D10E00F5F1F4F0F7311273F
:1002E000E02E8C8D8E110CC00FB607FCFACFE8897A
:1002F000F989808185FFF5CFCE010E942001F1CFE1
:10030000EB8DEC0FFD2FF11DE35AFF4FF0829FB7ED
:10031000F8940B8FEA89FB8980818062CFCFCF93DD
:10032000DF93EC01888D8823B9F0AA89BB89E8891D
:10033000F9898C9185FD03C0808186FD0DC00FB6C3
:1003400007FCF7CF8C9185FFF2CF808185FFEDCF41
:10035000CE010E942001E9CFDF91CF91089590E076
:10036000FC01EC54FF4F2491FC01E056FF4F349107
:10037000FC01E457FF4FE491EE23C9F0222339F04A
:10038000233001F1A8F4213019F1223029F1F0E0F5
:10039000EE0FFF1FEE57FF4FA591B4918FB7F89462
:1003A000EC91611126C030953E233C938FBF089598
:1003B0002730A9F02830C9F0243049F78091800017
:1003C0008F7D03C0809180008F7780938000DFCF86
:1003D00084B58F7784BDDBCF84B58F7DFBCF8091D3
:1003E000B0008F778093B000D2CF8091B0008F7D26
:1003F000F9CF3E2BDACF9091360189130BC0E8EC90
:10040000F0E0E4919FEF90933601E13049F028F05D
:10041000E23061F060E00C94AF0110926E00FACF10
:1004200090916F009D7F90936F00F4CF909170003A
:100430009D7F9093700091E09093B0009091B100F7
:10044000987F94609093B1001092B300E3CFCF9364
:10045000DF9390E0FC01E056FF4F249184579F4FBB
:10046000FC0184918823D1F090E0880F991FFC0152
:10047000E858FF4FA591B491FC01EE57FF4FC5918D
:10048000D491623071F49FB7F8943C91822F80959B
:1004900083238C93E8812E2B28839FBFDF91CF91FC
:1004A00008958FB7F894EC912E2B2C938FBFF6CF35
:1004B0008E50806480937C0080917A008064809369
:1004C0007A0080917A0086FDFCCF8091780090912F
:1004D00079000895089590E080E0089583E10E94F6
:1004E00058029C01220F331F820F931F97FF02C0F7
:1004F00081509C4F892F85958595089582E10E94B2
:1005000058029C01220F331F820F931F97FF02C0D6
:1005100081509C4F892F859585950895682F8AEC89
:1005200091E00C944201EF92FF920F931F93CF93AF
:10053000DF938C01EB017A010E948E02812F0E94D1
:100540008E0288810E948E0289810E948E028A8199
:100550000E948E02E7010E0D1F1DC017D10721F06A
:1005600089910E948E02F9CFDF91CF911F910F9157
:10057000FF90EF90089550E040E0BC0190E080E0F3
:100580000C9493022F923F924F925F926F927F92C0
:100590008F929F92AF92BF92CF92DF92EF92FF9293
:1005A0000F931F93CF93DF93CDB7DEB72C970FB682
:1005B000F894DEBF0FBECDBF4C011B01612C712C26
:1005C000B0E0A0E01B861C86412C512C6A01F12C66
:1005D000E12C00E010E098014983DA82EB82FC8292
:1005E0000D831E832F83388729813A8140E050E0B4
:1005F00060E070E080E090E05301CB2EDA2EEB84D7
:10060000FC8482010E946E2BB1F0A8F0F40181916C
:100610004F01F10181931F0193014B2F5A2FB70115
:10062000C201A1E00E94622B3901B42FA52F6B8774
:100630007C872C01D9CF2C960FB6F894DEBF0FBE65
:10064000CDBFDF91CF911F910F91FF90EF90DF9081
:10065000CF90BF90AF909F908F907F906F905F9062
:100660004F903F902F900895FC0101900020E9F7F2
:100670003197AF01481B590BBC0187E692E00C94FF
:10068000A200CF93DF93EC0160E08E810E94AF0166
:1006900061E08E810E94AF0160E08E810E94AF0117
:1006A0008BE891E00197F1F7DF91CF910895CF9218
:1006B000DF92EF92FF920F931F93CF93DF936C0122
:1006C0007C0187E0E80EF11CD0E0C0E0062F10E0CE
:1006D000B8010C2E02C0759567950A94E2F7617017
:1006E000F70181917F010E94AF012196C430D105AD
:1006F00079F7C601DF91CF911F910F91FF90EF9095
:10070000DF90CF900C944103CF92DF92EF92FF9253
:100710000F931F93CF93DF93EC01F62E642F8C8100
:100720000E94AF018D818F3F19F060E00E94AF0100
:100730000F2D10E08F8584FF25C06E0187E0C80E65
:10074000D11CF12CE12CB8010E2C02C075956795D7
:100750000A94E2F76170F60181916F010E94AF0186
:10076000FFEFEF1AFF0A88E0E816F10461F7CE0107
:10077000DF91CF911F910F91FF90EF90DF90CF907D
:100780000C944103B80184E0759567958A95E1F76B
:10079000CE010E9457036F2DCE01DF91CF911F91A3
:1007A0000F91FF90EF90DF90CF900C94570340E0B3
:1007B000682F87E692E00C94840381E00E94D703BF
:1007C0008BE39FE10197F1F70895CF93DF936130B9
:1007D00029F09091760298609093760260937A0265
:1007E00010927B0290E490937C0280937D02805C67
:1007F00080937E0261E080916B020E9427028091CB
:100800006C028F3F19F061E00E94270261E0809145
:100810006D020E942702C7E6D2E09E0127563240B1
:100820008091760284FD0BC084E090E02196281729
:10083000390744F461E08E810E942702EECF88E000
:1008400090E0F4CF8BE39DE00197F1F760E08091B9
:100850006B020E94AF0160E080916D020E94AF01C7
:1008600080916C028F3F19F060E00E94AF0180918F
:10087000760284FD34C063E087E692E00E9457036D
:10088000CBE4D6E4CE010197F1F763E087E692E08E
:100890000E9457032197F1F763E087E692E00E94F8
:1008A000570383E592E00197F1F762E087E692E073
:1008B0000E9457038091760280620E94D70384E0F1
:1008C000809377028CE00E94D7030E94DD0382E0D0
:1008D0008093780286E0DF91CF910C94D7038062F9
:1008E0000E94D7038BE496E40197F1F7809176029A
:1008F00080620E94D70383E592E00197F1F780912F
:10090000760280620E94D703D5CF90917A02691750
:1009100010F06FEF690FE62FF0E0E959FD4F948971
:10092000890F80680C94D70341E00E94840381E022
:1009300090E00895EF92FF920F931F93CF93DF9370
:10094000D82FC92F0E94DD030D2F1C2FC0E06C2F64
:1009500080E00E9485047801D1E0F70161917F0178
:10096000862F8F7D99F087E692E00E949404DF5FE6
:10097000D53199F7CF5F0C5E1F4FC43041F7DF913F
:10098000CF911F910F91FF90EF9008956C2F8D2FB5
:100990000E948504ECCF61E082E00E942702E6EB32
:1009A000F0E0E491E33079F148F4E130C9F0E2306D
:1009B00021F160E082E00E94AF0117C0E73079F1D9
:1009C000E830B1F1E430A9F7809180008062809333
:1009D00080008FEF9FEF90938B0080938A0005C07B
:1009E00084B5806884BD8FEF87BD61E082E00E949E
:1009F000270261E082E00C94AF0184B5806284BD7F
:100A00008FEF88BDF2CF8091800080688093800056
:100A10008FEF9FEF9093890080938800E6CF8091BD
:100A2000B00080688093B0008FEF8093B300DDCF7B
:100A30008091B00080628093B0008FEF8093B4000B
:100A4000D4CFCF93DF9300D000D000D01F92CDB78A
:100A5000DEB729833A834B835C836D837E838F83E8
:100A600069E071E0CE0103960E949000882309F4AA
:100A700061C00E94CB0480E091E00E94BB020E9412
:100A8000DD0360E080E00E9485048BE591E00E9438
:100A9000340361E080E00E9485048CE691E00E94CE
:100AA000340362E080E00E94850481E891E00E94C6
:100AB00034036B8187E692E00E9494046C8187E6A0
:100AC00092E00E9494046D8187E692E00E94940473
:100AD00063E080E00E94850486E891E00E94340390
:100AE0006091090187E692E00E94940460910A01F6
:100AF00087E692E00E94940460910B0187E692E001
:100B00000E94940460E287E692E00E94940460915F
:100B10000F0187E692E00E9494046091100187E63D
:100B200092E00E9494046091110187E692E00E9495
:100B30009404FFCF6FE071E0CE0103960E94900015
:100B4000882309F498CF81E08093B80127960FB6E7
:100B5000F894DEBF0FBECDBFDF91CF910895CF9344
:100B6000DF93EC0183E090E00E94992BE881AFEFE6
:100B7000AE0FAC0FBD2FB11D11962C91DC0112965A
:100B80002C93AEEFAE0FAC0FBD2FB11D11962C9173
:100B9000DC0111962C931197E350E883EC0FFD2FA5
:100BA000F11D21812C93DF91CF9108957F928F9237
:100BB0009F92AF92BF92CF92DF92EF92FF920F93EC
:100BC0001F93CF93DF9300D000D000D01F92CDB7FA
:100BD000DEB78AEC91E00E9400010597D0F38AEC21
:100BE00091E00E94DE00E82E8AEC91E00E94DE0097
:100BF000F82E8AEC91E00E94DE00782E8AEC91E0DB
:100C00000E94DE00A82E8AEC91E00E94DE00B82E41
:100C10008701C8010E94992B7C016C014801880E54
:100C2000991E8C149D0471F08AEC91E00E940001E1
:100C3000892BD1F38AEC91E00E94DE00F6018193CA
:100C40006F01EFCF1A830983FF82EE82202F3A8152
:100C50007E2D472D5A2D6B2D8F8190E027960FB654
:100C6000F894DEBF0FBECDBFDF91CF911F910F91E2
:100C7000FF90EF90DF90CF90BF90AF909F908F90BC
:100C80007F900895BF92CF92DF92EF92FF920F93E1
:100C90001F93CF93DF9300D000D000D01F92CDB729
:100CA000DEB761506A3108F066C0DC01E62FF0E083
:100CB000E45AF94F0C945C2B220876069406A4069D
:100CC000BD06D506EE06F606FF063D078607940725
:100CD0009A07A107AF07C00722082208E907ED0716
:100CE000F407F707FA07060814081B08AF5FBE4FA2
:100CF0008D919C91FC01E75AFE4FE081E80FF92F9E
:100D0000F11D108D1170812F27960FB6F894DEBF5C
:100D10000FBECDBFDF91CF911F910F91FF90EF904C
:100D2000DF90CF90BF900895AF5FBE4F8D919C91A3
:100D3000FC01E75AFE4FE081E80FF92FF11D108DFD
:100D4000111F1127111FDFCFAF5FBE4F8D919C91F7
:100D5000FC01E75AFE4FE081E80FF92FF11DDC019D
:100D6000A65ABE4F2C91820F911D11E0208DFC01DF
:100D7000808D821740F210E0C6CFAF5FBE4F8D91DD
:100D80009C91FC01E75AFE4FE081E80FF92FF11D1D
:100D9000DC01A65ABE4F2C91820F911D11E0208DCF
:100DA000FC01808D2813E7CFAECFAF5FBE4F8D9192
:100DB0009C91FC01E75AFE4FE081E80FF92FF11DED
:100DC000DC01A65ABE4F2C91820F911D11E0208D9F
:100DD000FC01808D281708F496CFCDCFAF5FBE4FB2
:100DE000ED91FC91ED58FE4F10818DCFAF5FBE4F5E
:100DF000ED91FC910190F081E02D128184CFAF5FE5
:100E0000BE4FED91FC91E680F78082E090E00E9479
:100E1000992B8C0142E050E0BC01C70102960E9470
:100E2000C202A80163E071E082E090E00E949302B8
:100E3000C8010E94352C0E94D605B22EC32ED42E96
:100E4000E52EF62E072F182F29833A834B835C83D8
:100E50006D837E838F8363E071E0CE0103960E94F1
:100E60009000811148C02B2D3C2D4D2D5E2D6F2DF6
:100E7000702F812F0E942105DECFAF5FBE4FED9115
:100E8000FC91E680F78082E090E00E94992B8C0133
:100E900042E050E0BC01C70102960E94C202A801D4
:100EA00066E071E082E090E00E949302C8010E9437
:100EB000352C0E94D605B22EC32ED42EE52EF62E4A
:100EC000072F182F29833A834B835C836D837E839E
:100ED0008F8366E071E0CE0103960E94900081113D
:100EE0000AC02B2D3C2D4D2D5E2D6F2D702F812F87
:100EF0000E942105DECF8E819F8111E0FC012081BF
:100F0000213009F010E00E94352CFDCEAF5FBE4FBE
:100F1000ED91FC910488F589E02DEF56FF4F11E02B
:100F200080818111F0CE27CF11E08C91882309F4C4
:100F3000EACE21CFAF5FBE4FED91FC91E85AFE4F54
:100F400053CFAF5FBE4F8D919C91FC01E75AFE4F8E
:100F5000E081E80FF92FF11D11E0808DE7CFAF5F41
:100F6000BE4FED91FC9184899589FC01EE56FF4FAF
:100F7000E081EF70E80FF92FF11DE058FF4F34CFFB
:100F8000AF5FBE4FED91FC9184899589FC01E058DB
:100F9000FF4F10811111B7CE319610811111B3CED0
:100FA000319610811111AFCE319610811111ABCE57
:100FB000319610811111A7CE319610811111A3CE57
:100FC0003196108189579F4FFC01112309F40CCFF2
:100FD0009ACE0E947E0211E0A9CF0E947E0211E00B
:100FE000823009F0C8CE8FCE0E946E02F8CF0E94E8
:100FF0006E02F1CF0E947E02813009F0BCCE0E94C9
:101000006E0211E0813009F0B6CE7DCEAF5FBE4FEB
:10101000ED91FC910280F381E02D11E081859285B4
:10102000892B09F070CEA7CEAF5FBE4FED91FC913A
:10103000E259FE4FD9CEAF5FBE4FED91FC91E15921
:10104000FE4FD2CE11E05FCECF93DF93CDB7DEB7A8
:10105000C059D1400FB6F894DEBF0FBECDBFE091AE
:10106000DA01F091DB0182E08083E091D601F0911A
:10107000D7011082E091D801F091D9018FEC8083E3
:101080001092E201E091DE01F091DF0186E08083C1
:10109000E091DC01F091DD01808180618083E0914D
:1010A000DC01F091DD01808188608083E091DC01CA
:1010B000F091DD01808180688083E091DC01F09116
:1010C000DD0180818F7D808364E084E10E94E503FF
:1010D0000E94DD0362E088E00E94270262E089E06E
:1010E0000E94270262E08AE00E94270262E08BE011
:1010F0000E94270262E088E00E94270262E089E005
:101100000E94270262E08AE00E94270262E08BE0F0
:101110000E942702FE0139968AE0DF011D928A951E
:10112000E9F76E01B7EACB1ABEEFDB0AE05BFF4FCF
:101130007F01D70111961C921E9213961C921E924B
:101140001297B4E0EB0EF11CCE14DF0491F7F60118
:101150001082C65ADE4F1882CA55D140C55ADE4F9A
:101160001882CB55D140C45ADE4F1882CC55D1409D
:10117000C35ADE4F1882CD55D140C25ADE4F188275
:10118000CE55D140C15ADE4F188219821A821B8275
:10119000CF55D140CD59DE4F1882C356D140CC59DE
:1011A000DE4F1882C456D140CB59DE4F18821982C7
:1011B0001A821B82C556D140C759DE4F1882198248
:1011C0001A821B82C956D140C359DE4F1882CD56B0
:1011D000D140C259DE4F1882CE56D140C159DE4FA0
:1011E0001882CF56D140C059DE4F1882C057D14027
:1011F00081E090E0CF58DE4F99838883C157D1407A
:10120000CD58DE4F1882C357D140CC58DE4F1882DC
:10121000C457D140CB58DE4F1882C557D140CA5869
:10122000DE4F1882C657D140C958DE4F1882C757C3
:10123000D14083E090E00E94992BDC0112961C9231
:101240001297E1E0F0E0EC0FFD1FED93FC939A8321
:1012500089838BE090E00E94992B2BE0DC011D92AA
:101260002A95E9F79C838B8383E091E00E94992B78
:10127000FC01EF5FFE4F21E030E02C0F3D1F31837A
:1012800020839E838D8384E090E00E94992B90932D
:10129000AD018093AC01E1E0F0E0EC0FFD1FDC015B
:1012A000ED93FC9398878F8383E590E00E94992BC0
:1012B00020E5DC011D922A95E9F7FC01E05BFF4F78
:1012C000108231961082319610829C8B8B8B83E931
:1012D00090E00E94992BFC019C0120583F4F108206
:1012E000118232962E173F07D1F7FC01E057FF4FCE
:1012F00010829E8B8D8B81E090E00E94992B988FBD
:101300008F8B89E091E00E94BB02FE01799681E01B
:1013100090E08C0F9D1F885A9F4F11928E179F0748
:10132000E1F78BE891E00E94340361E080E00E94E5
:10133000850486E991E00E943403E8E7F1E0EC0FD0
:10134000FD1F3296C157DE4FF983E883CF58D14055
:101350002FB7F8948091BF019091C001A091C10175
:10136000B091C2012FBFCB59DE4F488159816A81AC
:101370007B81C556D140841B950BA60BB70B0B97F1
:10138000A105B105C8F12FB7F8948091BF019091E4
:10139000C001A091C101B091C2012FBFCB59DE4F56
:1013A00088839983AA83BB83C556D140DE011196F9
:1013B000FE01E75AFF4F80819181009751F05896C6
:1013C0002C9158972F5F58962C935897019791839B
:1013D000808382819381009751F058962C91589781
:1013E000215058962C935897019793838283349673
:1013F0001196EE16FF06F9F6CD58DE4F8881C357D9
:10140000D140811165C08985882309F4DDC0E09150
:10141000AC01F091AD010190F081E02D6A858481ED
:1014200095810E944206882309F4CEC0ED81FE8199
:10143000C15ADE4F3881CF55D140C05ADE4F288186
:10144000C056D140CF59DE4F9881C156D1408081DE
:10145000DF01A80FB11D11963C93A1E0A80FAE0FBC
:10146000BF2FB11D11962C93A2E0A80FAE0FBF2F76
:10147000B11D11969C938D5F80838C85282F30E061
:10148000322F22278B85820F932F911D092E000C5E
:10149000AA0BBB0B4D8550E070E060E0BA01552708
:1014A0004427840F951FA61FB71FC15ADE4F88839C
:1014B0009983AA83BB83CF55D140CD58DE4F888115
:1014C000C357D1408F5FCD58DE4F8883C357D1407B
:1014D000EB81FC8181859285892B09F4BEC0C159BD
:1014E000DE4F8881CF56D14080838B809C80C15A4B
:1014F000DE4F488059806A807B80CF55D140C957E4
:10150000DE4F488259826A827B82C758D140D4011B
:101510008C918111D2C184E090E00E94992B5C01F2
:1015200044E050E0BC01CE0189579E4F0E94C202A8
:10153000A5016CE071E084E090E00E949302C50197
:101540000E94352C0E94D605522E632E742E852EB5
:10155000962EA72EB82EC858DE4F2883C857D140E4
:10156000C758DE4F3883C957D140C658DE4F48832D
:10157000CA57D140C558DE4F5883CB57D140C458C5
:10158000DE4F6883CC57D140C358DE4F7883CD57A8
:10159000D140C258DE4F8883CE57D1406CE071E015
:1015A000C157DE4F88819981CF58D1400E94900069
:1015B000811155C0252D362D472D582D692D7A2D99
:1015C0008B2D0E942105BECF8E85882309F480CF04
:1015D000E091AC01F091AD010190F081E02D6F85BB
:1015E000848195810E944206882309F471CFED81A0
:1015F000FE81C15ADE4F3881CF55D140C05ADE4FEF
:101600002881C056D140CF59DE4F9881C156D14074
:101610008081DF01A80FB11D11963C93A1E0A80FB6
:10162000AE0FBF2FB11D11962C93A2E0A80FAE0FE5
:10163000BF2FB11D11969C938D5F80838989282FC0
:1016400030E0322F22278889820F932F911D092E97
:10165000000CAA0BBB0B4A891ECF108246CFC35881
:10166000DE4FA880B980CD57D1408091B90181115A
:1016700005C00E94DD0381E08093B90144E050E0A1
:10168000BE0165577E4FC5010E94C202C5010E947E
:10169000352CC257DE4F6880CE58D140C357DE4F3D
:1016A0001881CD58D140C457DE4F0881CC58D14065
:1016B000C557DE4FA880CB58D1408091B801882310
:1016C00009F46FC08BE090E00E94992B4C01EA2D49
:1016D000F0E084E0F595E7958A95E1F7E859FF4F4A
:1016E0008081D4018C93EA2DEF70F0E0E859FF4F30
:1016F000808111968C93119780E212968C931297A9
:10170000E02FF0E094E0F595E7959A95E1F7E85938
:10171000FF4F908113969C931397E02FEF70F0E0AA
:10172000E859FF4F908114969C93149715968C93CB
:101730001597E12FF0E024E0F595E7952A95E1F77C
:10174000E859FF4F908116969C931697E12FEF7002
:10175000F0E0E859FF4F908117969C9317971896E1
:101760008C931897E62DF0E034E0F595E7953A95DF
:10177000E1F7E859FF4F808119968C931997E62D70
:10178000EF70F0E0E859FF4F80811A968C93A40126
:101790006FE071E08BE090E00E949302C4010E9430
:1017A000352CEFEFEA0DE23808F0E3C0F0E0E55247
:1017B000F44F0C945C2BA30CB70CBA0CD00CE50CBA
:1017C0003D0D520D670D7C0D910DA80DBE0DD30D75
:1017D0002B0E400E550E6A0E7F0E960EAF0EC80EE3
:1017E000E10E040F490F810FA80FED0F25104D10CA
:1017F0004211FB111A1244126F128A12A4123613EC
:101800005A137E13A213CB13FD1325144E14A914DF
:1018100001155C15A615F01526165C169D16DE162C
:101820001F176117A317E51704183A1854187218F0
:10183000B01809197D19BB192E1A791A931AAD1A05
:10184000C71AEB1A0F1B331B7D1BA61BCE1BF01BED
:10185000121C531C6E1C881CAC1CC61CE61CFF1CF6
:101860004F1D7A1DA71DCB1DEF1D221E6F1E841E4E
:10187000841E991ECF1E041F351F4C1F9B1FBA1FAD
:10188000DA1F1820AC2040218B211F223822D822B9
:101890006E239423BE23D823F3230D242E244F2418
:1018A0005E267626BE2600272927482771279727F8
:1018B000C827F02718283528572884E090E00E9490
:1018C000992B5C01F40121853285C2019170820F50
:1018D000931FB301A2015170662777274D3F5140F6
:1018E0006105710550F1DC018C91F5018083D30114
:1018F000C2010196A11DB11D9170820F931FDC01E1
:101900008C918183D301C2010296A11DB11D9170FA
:10191000820F931FFC018081D50112968C93B3E056
:101920004B0E511C611C711CE1E05E22420E531EE5
:10193000D2018C91F501838398CE44E050E0B5014B
:101940000E94C20292CEC15ADE4F88819981AA813B
:10195000BB81CF55D1400196A11DB11DC15ADE4FAB
:1019600088839983AA83BB83CF55D140F1CC0E9451
:10197000CB04FFCF81E08987C15ADE4F88819981EE
:10198000AA81BB81CF55D1400196A11DB11DC15A7D
:10199000DE4F88839983AA83BB83CF55D140D8CCAF
:1019A0001986C15ADE4F88819981AA81BB81CF55A2
:1019B000D1400196A11DB11DC15ADE4F8883998384
:1019C000AA83BB83CF55D140C3CCC15ADE4F4881D7
:1019D00059816A817B81CF55D1404F5F5F4F6F4FF7
:1019E0007F4FC15ADE4F488359836A837B83CF552B
:1019F000D140ED81FE818081DF01A80FB11D1196DC
:101A00004C93A1E0A80FAE0FBF2FB11D11965C93B0
:101A1000A2E0A80FAE0FBF2FB11D11966C938D5F82
:101A200080838C85282F30E0322F22278B85820FF0
:101A3000932F911D092E000CAA0BBB0B4D8550E076
:101A400070E060E0BA0155274427840F951FA61F58
:101A5000B71FC15ADE4F88839983AA83BB83CF55B2
:101A6000D140CD58DE4F8881C357D1408F5FCD58CC
:101A7000DE4F8883C357D1406BCC0A87C15ADE4FF3
:101A800088819981AA81BB81CF55D1400296A11D41
:101A9000B11DC15ADE4F88839983AA83BB83CF557A
:101AA000D14056CC0B87C15ADE4F88819981AA81DB
:101AB000BB81CF55D1400296A11DB11DC15ADE4F49
:101AC00088839983AA83BB83CF55D14041CC0C87AF
:101AD000C15ADE4F88819981AA81BB81CF55D140FF
:101AE0000296A11DB11DC15ADE4F88839983AA8336
:101AF000BB83CF55D1402CCC0D87C15ADE4F888196
:101B00009981AA81BB81CF55D1400296A11DB11DFB
:101B1000C15ADE4F88839983AA83BB83CF55D140B6
:101B200017CC0B871C876D86C15ADE4F888199813F
:101B3000AA81BB81CF55D1400496A11DB11DC15AC8
:101B4000DE4F88839983AA83BB83CF55D14000CCD5
:101B500081E08E87C15ADE4F88819981AA81BB813D
:101B6000CF55D1400196A11DB11DC15ADE4F8883CA
:101B70009983AA83BB83CF55D140EACB1E86C15A35
:101B8000DE4F88819981AA81BB81CF55D1400196D2
:101B9000A11DB11DC15ADE4F88839983AA83BB83DF
:101BA000CF55D140D5CBC15ADE4F488159816A818A
:101BB0007B81CF55D1404F5F5F4F6F4F7F4FC15AF1
:101BC000DE4F488359836A837B83CF55D140ED81B3
:101BD000FE818081DF01A80FB11D11964C93A1E019
:101BE000A80FAE0FBF2FB11D11965C93A2E0A80FF6
:101BF000AE0FBF2FB11D11966C938D5F80838989C5
:101C0000282F30E0322F22278889820F932F911DB1
:101C1000092E000CAA0BBB0B4A8950E070E060E073
:101C2000BA0155274427840F951FA61FB71FC15A15
:101C3000DE4F88839983AA83BB83CF55D140CD588B
:101C4000DE4F8881C357D1408F5FCD58DE4F8883E8
:101C5000C357D1407DCB0F87C15ADE4F8881998110
:101C6000AA81BB81CF55D1400296A11DB11DC15A99
:101C7000DE4F88839983AA83BB83CF55D14068CB3D
:101C8000088BC15ADE4F88819981AA81BB81CF55CB
:101C9000D1400296A11DB11DC15ADE4F88839983A0
:101CA000AA83BB83CF55D14053CB098BC15ADE4F9A
:101CB00088819981AA81BB81CF55D1400296A11D0F
:101CC000B11DC15ADE4F88839983AA83BB83CF5548
:101CD000D1403ECB0A8BC15ADE4F88819981AA81BF
:101CE000BB81CF55D1400296A11DB11DC15ADE4F17
:101CF00088839983AA83BB83CF55D14029CB088B96
:101D0000198B6A8AC15ADE4F88819981AA81BB8169
:101D1000CF55D1400496A11DB11DC15ADE4F888315
:101D20009983AA83BB83CF55D14012CBCB58DE4FCA
:101D30000883C557D140C15ADE4F88819981AA8155
:101D4000BB81CF55D1400296A11DB11DC15ADE4FB6
:101D500088839983AA83BB83CF55D140F9CACA58D7
:101D6000DE4F0883C657D140C15ADE4F8881998122
:101D7000AA81BB81CF55D1400296A11DB11DC15A88
:101D8000DE4F88839983AA83BB83CF55D140E0CAB5
:101D9000C958DE4F0883C757D140C15ADE4F8881EA
:101DA0009981AA81BB81CF55D1400296A11DB11D59
:101DB000C15ADE4F88839983AA83BB83CF55D14014
:101DC000C7CACB58DE4F0883C557D140CA58DE4F2B
:101DD0001883C657D140C958DE4F6882C757D140D3
:101DE000C15ADE4F88819981AA81BB81CF55D140EC
:101DF0000496A11DB11DC15ADE4F88839983AA8321
:101E0000BB83CF55D140A4CACB58DE4F8881C5577C
:101E1000D1408F5FCB58DE4F8883C557D1408111A9
:101E200032C081E0CC58DE4F8883C457D140CA58B5
:101E3000DE4F8881C657D1408F5FCA58DE4F8883F6
:101E4000C657D14081110BC0C958DE4F8881C75792
:101E5000D1408F5FC958DE4F8883C757D140C15AE0
:101E6000DE4F88819981AA81BB81CF55D1400196EF
:101E7000A11DB11DC15ADE4F88839983AA83BB83FC
:101E8000CF55D14065CACC58DE4F1882C457D140D7
:101E9000E6CFCA58DE4F8881C657D1408F5FCA58F7
:101EA000DE4F8883C657D140811125C081E0CC58D0
:101EB000DE4F8883C457D140C958DE4F8881C75749
:101EC000D1408F5FC958DE4F8883C757D140C15A70
:101ED000DE4F88819981AA81BB81CF55D14001967F
:101EE000A11DB11DC15ADE4F88839983AA83BB838C
:101EF000CF55D1402DCACC58DE4F1882C457D1409F
:101F0000E6CFC958DE4F8881C757D1408F5FC95887
:101F1000DE4F8883C757D14091E0811190E0CC58C3
:101F2000DE4F9883C457D140C15ADE4F88819981D2
:101F3000AA81BB81CF55D1400196A11DB11DC15AC7
:101F4000DE4F88839983AA83BB83CF55D14000CAD3
:101F5000CB58DE4F8881C557D1408150CB58DE4FDA
:101F60008883C557D1408F3F91F581E0CC58DE4F33
:101F70008883C457D140CA58DE4F8881C657D140A4
:101F80008150CA58DE4F8883C657D1408F3F59F4DD
:101F9000C958DE4F8881C757D1408150C958DE4F9C
:101FA0008883C757D140C15ADE4F88819981AA8161
:101FB000BB81CF55D1400196A11DB11DC15ADE4F45
:101FC00088839983AA83BB83CF55D140C1C9CC589C
:101FD000DE4F1882C457D140E6CFCA58DE4F888101
:101FE000C657D1408150CA58DE4F8883C657D1406A
:101FF0008F3F29F581E0CC58DE4F8883C457D1400C
:10200000C958DE4F8881C757D1408150C958DE4F2B
:102010008883C757D140C15ADE4F88819981AA81F0
:10202000BB81CF55D1400196A11DB11DC15ADE4FD4
:1020300088839983AA83BB83CF55D14089C9CC5863
:10204000DE4F1882C457D140E6CFC958DE4F888191
:10205000C757D1408150C958DE4F8883C757D140F8
:1020600091E08F3F09F090E0CC58DE4F9883C45741
:10207000D140C15ADE4F88819981AA81BB81CF5559
:10208000D1400196A11DB11DC15ADE4F88839983AD
:10209000AA83BB83CF55D1405BC9EB81FC8181858D
:1020A0009285892B09F48EC0C059DE4F8881C057B4
:1020B000D14080830F73A02EB12CCA58DE4F888187
:1020C000C657D140282F30E0322F2227CB58DE4F81
:1020D0008881C557D140820F932F911D092E000C86
:1020E000AA0BBB0BC958DE4F4881C757D14050E0FF
:1020F00070E060E0BA0155274427840F951FA61FA2
:10210000B71FCD57DE4F88839983AA83BB83C358FB
:10211000D14084E090E00E94992B4C0144E050E0D3
:10212000BC01CE018D579E4F0E94C202A40162E104
:1021300071E084E090E00E949302C4010E94352C7B
:102140000E94D605322E432E542E652E762E872ED3
:10215000982EC858DE4F2883C857D140C758DE4F45
:102160003883C957D140C658DE4F4883CA57D1403B
:10217000C558DE4F5883CB57D140C458DE4F6883D3
:10218000CC57D140C358DE4F7883CD57D140C25889
:10219000DE4F8883CE57D14062E171E0C157DE4FF8
:1021A00088819981CF58D1400E94900081110CC044
:1021B000232D342D452D562D672D782D892D0E94E8
:1021C0002105BECF108276CFC358DE4F888199811A
:1021D000CD57D140FC0190800E94352CE9E1F0E020
:1021E000EC0FFD1FEA0DFB1D9082CC59DE4F88815C
:1021F000C456D140882359F1CB58DE4F8881C5574A
:10220000D1408F5FCB58DE4F8883C557D1408111B5
:1022100033C081E0CC58DE4F8883C457D140CA58C0
:10222000DE4F8881C657D1408F5FCA58DE4F888302
:10223000C657D14081110BC0C958DE4F8881C7579E
:10224000D1408F5FC958DE4F8883C757D140C15AEC
:10225000DE4F88819981AA81BB81CF55D1400296FA
:10226000A11DB11DC15ADE4F88839983AA83BB8308
:10227000CF55D1400C94A809CC58DE4F1882C457D2
:10228000D140E5CFEB81FC8181859285892B09F4D2
:10229000A2C0C059DE4F8881C057D1408083EB81F6
:1022A000FC81A02FAF7329E130E02C0F3D1F2A0FD6
:1022B000311DD901BC90CA58DE4F8881C657D14024
:1022C000282F30E0322F2227CB58DE4F8881C55788
:1022D000D140820F932F911D092E000CAA0BBB0B2E
:1022E000C958DE4F4881C757D14050E070E060E0E8
:1022F000BA0155274427840F951FA61FB71FC15841
:10230000DE4F88839983AA83BB83CF57D140208136
:10231000211163C085E090E00E94992B4C0144E0BC
:1023200050E0BC01CE0181589E4F0E94C202D401F0
:102330001496BC92A40165E171E085E090E00E94F2
:102340009302C4010E94352CCC59DE4F8881C456BB
:10235000D140882359F1CB58DE4F8881C557D140F1
:102360008F5FCB58DE4F8883C557D14081113DC068
:1023700081E0CC58DE4F8883C457D140CA58DE4F25
:102380008881C657D1408F5FCA58DE4F8883C657B1
:10239000D14081110BC0C958DE4F8881C757D14049
:1023A0008F5FC958DE4F8883C757D140C15ADE4F6F
:1023B00088819981AA81BB81CF55D1400296A11D08
:1023C000B11DC15ADE4F88839983AA83BB83CF5541
:1023D000D1400C94A809108262CF9170218532857A
:1023E000820F931FFC01B082AFCFCC58DE4F188212
:1023F000C457D140DBCFE02FEF7329E130E02C0F41
:102400003D1F2E0F311DF9011083C15ADE4F888107
:102410009981AA81BB81CF55D1400396A11DB11DE1
:10242000C15ADE4F88839983AA83BB83CF55D1409D
:102430000C94A809E02FEF7349E150E04C0F5D1FA9
:102440004E0F511DFA0190819F5F9083C15ADE4F5C
:10245000488159816A817B81CF55D1404E5F5F4F62
:102460006F4F7F4FC15ADE4F488359836A837B8306
:10247000CF55D14081E0911180E0CC58DE4F888368
:10248000C457D1400C94A809E02FEF7389E190E084
:102490008C0F9D1F8E0F911DFC0190819150908398
:1024A000C15ADE4F488159816A817B81CF55D14025
:1024B0004E5F5F4F6F4F7F4FC15ADE4F4883598346
:1024C0006A837B83CF55D14081E09F3F09F080E054
:1024D000CC58DE4F8883C457D1400C94A80981E0C2
:1024E000CC59DE4F8883C456D140C15ADE4F888113
:1024F0009981AA81BB81CF55D1400196A11DB11D03
:10250000C15ADE4F88839983AA83BB83CF55D140BC
:102510000C94A809CC59DE4F1882C456D140C15A38
:10252000DE4F88819981AA81BB81CF55D140019628
:10253000A11DB11DC15ADE4F88839983AA83BB8335
:10254000CF55D1400C94A809EB81FC8181859285FF
:10255000892B09F44AC0C059DE4F8881C057D14049
:10256000808388E191E00E94BB020E94D605322E52
:10257000432E542E652E4B01A82EC858DE4F2883BB
:10258000C857D140C758DE4F3883C957D140C658C5
:10259000DE4F4883CA57D140C558DE4F5883CB57CA
:1025A000D140C458DE4F6883CC57D140C358DE4F6A
:1025B0009882CD57D140C258DE4F8883CE57D14044
:1025C00068E171E0C157DE4F88819981CF58D140D1
:1025D0000E94900081110BC0232D342D452D562DC6
:1025E000B4018A2D0E942105C0CF1082BACFC358F2
:1025F000DE4F88819981CD57D140DC0111968C90B6
:102600001197082C000C9908982C88242C91820E84
:10261000911C27FD9A940E94352CE02FEF7329E13D
:1026200030E02C0F3D1F2E0F311DF9018082E12F6C
:10263000EF7349E150E04C0F5D1F4E0F511DFA0141
:102640009082C15ADE4F88819981AA81BB81CF5582
:10265000D1400396A11DB11DC15ADE4F88839983D5
:10266000AA83BB83CF55D1400C94A809E02FEF7308
:1026700089E190E08C0F9D1F8E0F911DFC01CB58BE
:10268000DE4F8881C557D1408083C15ADE4F888193
:102690009981AA81BB81CF55D1400296A11DB11D60
:1026A000C15ADE4F88839983AA83BB83CF55D1401B
:1026B0000C94A809E02FEF73A9E1B0E0AC0FBD1FA7
:1026C000AE0FB11DFD01CA58DE4F8881C657D140FB
:1026D0008083C15ADE4F88819981AA81BB81CF5501
:1026E000D1400296A11DB11DC15ADE4F8883998346
:1026F000AA83BB83CF55D1400C94A809E02FEF7378
:1027000029E130E02C0F3D1F2E0F311DF901C95872
:10271000DE4F8881C757D1408083C15ADE4F888100
:102720009981AA81BB81CF55D1400296A11DB11DCF
:10273000C15ADE4F88839983AA83BB83CF55D1408A
:102740000C94A809E02FEF7349E150E04C0F5D1F96
:102750004E0F511DFA018081E12FEF73A9E1B0E026
:10276000AC0FBD1FAE0FB11DFD018083C15ADE4FFE
:1027700088819981AA81BB81CF55D1400396A11D43
:10278000B11DC15ADE4F88839983AA83BB83CF557D
:10279000D1400C94A809E02FEF7329E130E02C0F11
:1027A0003D1F2E0F311DF901E081EF7349E150E02B
:1027B0004C0F5D1F4E0F511DFA018081E12FEF7309
:1027C000A9E1B0E0AC0FBD1FAE0FB11DFD018083CC
:1027D000C15ADE4F88819981AA81BB81CF55D140F2
:1027E0000396A11DB11DC15ADE4F88839983AA8328
:1027F000BB83CF55D1400C94A809E02FEF7329E19A
:1028000030E02C0F3D1F2E0F311DF90190819F5F8D
:102810009083C15ADE4F488159816A817B81CF55AF
:10282000D1404E5F5F4F6F4F7F4FC15ADE4F48839D
:1028300059836A837B83CF55D140E981FA8181E056
:10284000911180E082830C94A809E02FEF7349E195
:1028500050E04C0F5D1F4E0F511DFA0190819150B9
:102860009083C15ADE4F488159816A817B81CF555F
:10287000D1404E5F5F4F6F4F7F4FC15ADE4F48834D
:1028800059836A837B83CF55D140E981FA8181E006
:102890009F3F09F080E082830C94A809C15ADE4F63
:1028A00088819981AA81BB81CF55D1400496A11D11
:1028B000B11DC15ADE4F88839983AA83BB83CF554C
:1028C000D140C65ADE4F0883CA55D140C55ADE4FA3
:1028D0001883CB55D140E02FEF7389E190E08C0F46
:1028E0009D1F8E0F911DFC018081E12FEF73A9E1E7
:1028F000B0E0AC0FBD1FAE0FB11DFD019081890F7F
:102900009927991FE981FA8121E08F3F910509F00C
:102910000CF420E02283A62DAF73E9E1F0E0EC0F88
:10292000FD1FEA0FF11DDF019927F92FFF0FFF0BA4
:102930009C014F2F5F2F6F2F7F2F8F2F9F2F3F5F78
:102940004F4F5F4F6F4F7F4F8F4F9F4F2C930C9484
:10295000A809C15ADE4F88819981AA81BB81CF55D0
:10296000D1400496A11DB11DC15ADE4F88839983C1
:10297000AA83BB83CF55D140C65ADE4F0883CA55C0
:10298000D140C55ADE4F1883CB55D140E02FEF73AD
:1029900029E130E02C0F3D1F2E0F311DF901808100
:1029A000E12FEF7349E150E04C0F5D1F4E0F511DB9
:1029B000FA019081891B990BE981FA81292F221F45
:1029C0002227221F2283A62DAF73E9E1F0E0EC0F4E
:1029D000FD1FEA0FF11DDF019927F92FFF0FFF0BF4
:1029E0009C014F2F5F2F6F2F7F2F8F2F9F2F3F5FC8
:1029F0004F4F5F4F6F4F7F4F8F4F9F4F2C930C94D4
:102A0000A809C15ADE4F88819981AA81BB81CF551F
:102A1000D1400496A11DB11DC15ADE4F8883998310
:102A2000AA83BB83CF55D140C65ADE4F0883CA550F
:102A3000D140C55ADE4F1883CB55D140A02FAF737C
:102A400029E130E02C0F3D1F2A0F311DD901E12F64
:102A5000EF7349E150E04C0F5D1F4E0F511DFA011D
:102A60008C919081899FC0011124E981FA8121E034
:102A70008F3F910509F00CF420E02283A62DAF735F
:102A8000E9E1F0E0EC0FFD1FEA0FF11DDF019927EE
:102A9000F92FFF0FFF0B9C014F2F5F2F6F2F7F2F01
:102AA0008F2F9F2F3F5F4F4F5F4F6F4F7F4F8F4F46
:102AB0009F4F2C930C94A809C15ADE4F88819981AD
:102AC000AA81BB81CF55D1400496A11DB11DC15A29
:102AD000DE4F88839983AA83BB83CF55D140C65AE2
:102AE000DE4F0883CA55D140C55ADE4F1883CB55F7
:102AF000D140E12FEF7329E130E02C0F3D1F2E0F65
:102B0000311DF9019081E02FEF7349E150E04C0F46
:102B10005D1F4E0F511DFA018081562D5F73652E8A
:102B2000712CE981FA8121E0911120E0228399231F
:102B300019F0692F0E94312BA9E1B0E0AC0FBD1F45
:102B40006A0E7B1EF30190830C94A809C15ADE4FD4
:102B500088819981AA81BB81CF55D1400496A11D5E
:102B6000B11DC15ADE4F88839983AA83BB83CF5599
:102B7000D140C65ADE4F0883CA55D140C55ADE4FF0
:102B80001883CB55D140E12FEF7329E130E02C0FB2
:102B90003D1F2E0F311DF9016081E02FEF7349E1D8
:102BA00050E04C0F5D1F4E0F511DFA018081562DD4
:102BB0005F73652E712CE981FA8191E0611190E0DB
:102BC0009283662319F00E94312B682F89E190E0EF
:102BD0008C0F9D1F680E791ED3016C930C94A8096D
:102BE000C15ADE4F88819981AA81BB81CF55D140DE
:102BF0000396A11DB11DC15ADE4F88839983AA8314
:102C0000BB83CF55D140C65ADE4F0883CA55D14049
:102C1000E02FEF7329E130E02C0F3D1F2E0F311D07
:102C2000F9018081E981FA8191E0813808F490E02E
:102C30009283E12FEF7349E150E04C0F5D1F4E0F7F
:102C4000511DFA01880F80830C94A809C15ADE4FE8
:102C500088819981AA81BB81CF55D1400396A11D5E
:102C6000B11DC15ADE4F88839983AA83BB83CF5598
:102C7000D140C65ADE4F0883CA55D140E02FEF73CA
:102C800089E190E08C0F9D1F8E0F911DFC018081CA
:102C9000E981FA81982F91709283E12FEF73A9E176
:102CA000B0E0AC0FBD1FAE0FB11DFD0190E09595DA
:102CB000879580830C94A809C15ADE4F8881998139
:102CC000AA81BB81CF55D1400496A11DB11DC15A27
:102CD000DE4F88839983AA83BB83CF55D140C65AE0
:102CE000DE4F0883CA55D140C55ADE4F1883CB55F5
:102CF000D140E12FEF7329E130E02C0F3D1F2E0F63
:102D0000311DF9019081E02FEF7349E150E04C0F44
:102D10005D1F4E0F511DFA018081E981FA811282F7
:102D2000E62DEF73A9E1B0E0AC0FBD1FAE0FB11DF2
:102D3000FD01892380830C94A809C15ADE4F888144
:102D40009981AA81BB81CF55D1400496A11DB11DA7
:102D5000C15ADE4F88839983AA83BB83CF55D14064
:102D6000C65ADE4F0883CA55D140C55ADE4F188374
:102D7000CB55D140E12FEF7329E130E02C0F3D1FFF
:102D80002E0F311DF9019081E02FEF7349E150E0E2
:102D90004C0F5D1F4E0F511DFA018081E981FA81B0
:102DA0001282E62DEF73A9E1B0E0AC0FBD1FAE0FAC
:102DB000B11DFD01892B80830C94A809C15ADE4FF7
:102DC00088819981AA81BB81CF55D1400496A11DEC
:102DD000B11DC15ADE4F88839983AA83BB83CF5527
:102DE000D140C65ADE4F0883CA55D140C55ADE4F7E
:102DF0001883CB55D140E12FEF7329E130E02C0F40
:102E00003D1F2E0F311DF9019081E02FEF7349E135
:102E100050E04C0F5D1F4E0F511DFA018081E9817A
:102E2000FA811282E62DEF73A9E1B0E0AC0FBD1F6D
:102E3000AE0FB11DFD01892780830C94A809C15AEA
:102E4000DE4F88819981AA81BB81CF55D1400496FC
:102E5000A11DB11DC15ADE4F88839983AA83BB830C
:102E6000CF55D140C65ADE4F0883CA55D140C55A06
:102E7000DE4F1883CB55D140E12FEF7329E130E0CD
:102E80002C0F3D1F2E0F311DF9019081E02FEF73A4
:102E900049E150E04C0F5D1F4E0F511DFA0180813A
:102EA000E981FA811282E62DEF73A9E1B0E0AC0F5F
:102EB000BD1FAE0FB11DFD018923809580830C9449
:102EC000A809C15ADE4F88819981AA81BB81CF555B
:102ED000D1400496A11DB11DC15ADE4F888399834C
:102EE000AA83BB83CF55D140C65ADE4F0883CA554B
:102EF000D140C55ADE4F1883CB55D140E12FEF7337
:102F000029E130E02C0F3D1F2E0F311DF90190817A
:102F1000E02FEF7349E150E04C0F5D1F4E0F511D44
:102F2000FA018081E981FA811282E62DEF73A9E12D
:102F3000B0E0AC0FBD1FAE0FB11DFD01892B809518
:102F400080830C94A809C15ADE4F88819981AA8197
:102F5000BB81CF55D1400496A11DB11DC15ADE4F92
:102F600088839983AA83BB83CF55D140C65ADE4F4D
:102F70000883CA55D140C55ADE4F1883CB55D1407E
:102F8000E12FEF7329E130E02C0F3D1F2E0F311D93
:102F9000F9019081E02FEF7349E150E04C0F5D1F84
:102FA0004E0F511DFA018081E981FA811282E62DCE
:102FB000EF73A9E1B0E0AC0FBD1FAE0FB11DFD0175
:102FC0008927809580830C94A809C15ADE4F888197
:102FD0009981AA81BB81CF55D1400396A11DB11D16
:102FE000C15ADE4F88839983AA83BB83CF55D140D2
:102FF000C65ADE4F0883CA55D140C55ADE4F1883E2
:10300000CB55D1400C94A809C15ADE4F88819981D3
:10301000AA81BB81CF55D1400396A11DB11DC15AD4
:10302000DE4F88839983AA83BB83CF55D140C65A8C
:10303000DE4F0883CA55D140E02FEF7329E130E01D
:103040002C0F3D1F2E0F311DF9018081E981FA817E
:10305000982F91709283E12FEF7349E150E04C0F6C
:103060005D1F4E0F511DFA0190E095958795808365
:103070000C94A809CD59DE4F0883C356D140C15ADC
:10308000DE4F88819981AA81BB81CF55D1400296BC
:10309000A11DB11DC15ADE4F88839983AA83BB83CA
:1030A000CF55D1400C94A809812F90E0982F882704
:1030B000800F911D092E000CAA0BBB0B712C912CBB
:1030C000812C430177246624860D971DA81DB91D08
:1030D000C15ADE4F88839983AA83BB83CF55D140E1
:1030E0000C94A809CD59DE4F6881C356D1408D811B
:1030F0009E810E9442068823F1F0812F90E0982F54
:103100008827800F911D092E000CAA0BBB0B712C78
:10311000912C812C430177246624860D971DA81DD0
:10312000B91DC15ADE4F88839983AA83BB83CF55CB
:10313000D1400C94A809C15ADE4F88819981AA8197
:10314000BB81CF55D1400496A11DB11DC15ADE4FA0
:1031500088839983AA83BB83CF55D1400C94A80957
:10316000C15ADE4F488159816A817B81CF55D14058
:103170004C5F5F4F6F4F7F4FC15ADE4F488359837B
:103180006A837B83CF55D140ED81FE818081DF0151
:10319000A80FB11D11964C93A1E0A80FAE0FBF2F41
:1031A000B11D11965C93A2E0A80FAE0FBF2FB11D09
:1031B00011966C938D5F8083812F90E0982F8827E4
:1031C000800F911D092E000CAA0BBB0B712C912CAA
:1031D000812C430177246624860D971DA81DB91DF7
:1031E000C15ADE4F88839983AA83BB83CF55D140D0
:1031F000CD58DE4F8881C357D140882311F40C94F9
:10320000A8098F5FCD58DE4F8883C357D1400C94F7
:10321000A809C15ADE4F88819981AA81BB81CF5507
:10322000D1400496A11DB11DC15ADE4F88839983F8
:10323000AA83BB83CF55D140CD59DE4F6881C35699
:10324000D1408D819E810E944206882311F40C9406
:10325000A809ED81FE81C15ADE4F3881CF55D1409A
:10326000C05ADE4F2881C056D140CF59DE4F9881D9
:10327000C156D1408081DF01A80FB11D11963C934A
:10328000A1E0A80FAE0FBF2FB11D11962C93A2E0A5
:10329000A80FAE0FBF2FB11D11969C938D5F808339
:1032A000812F90E0982F8827800F911D092E000C08
:1032B000AA0BBB0B712C912C812C43017724662423
:1032C000860D971DA81DB91DC15ADE4F88839983AD
:1032D000AA83BB83CF55D140CD58DE4F8881C357D9
:1032E000D140882311F40C94A8098F5FCD58DE4F8C
:1032F0008883C357D1400C94A809CD59DE4F68810B
:10330000C356D1408D819E810E94420681111EC00C
:10331000812F90E0982F8827800F911D092E000C97
:10332000AA0BBB0B712C912C812C430177246624B2
:10333000860D971DA81DB91DC15ADE4F888399833C
:10334000AA83BB83CF55D1400C94A809C15ADE4F44
:1033500088819981AA81BB81CF55D1400496A11D56
:10336000B11DC15ADE4F88839983AA83BB83CF5591
:10337000D1400C94A809C15ADE4F88819981AA8155
:10338000BB81CF55D1400496A11DB11DC15ADE4F5E
:1033900088839983AA83BB83CF55D140CD59DE4F13
:1033A0006881C356D1408D819E810E944206811161
:1033B0000C94A809ED81FE81C15ADE4F3881CF55AA
:1033C000D140C05ADE4F2881C056D140CF59DE4F80
:1033D0009881C156D1408081DF01A80FB11D11969F
:1033E0003C93A1E0A80FAE0FBF2FB11D11962C93F7
:1033F000A2E0A80FAE0FBF2FB11D11969C938D5F59
:103400008083812F90E0982F8827800F911D092EAF
:10341000000CAA0BBB0B712C912C812C430177243F
:103420006624860D971DA81DB91DC15ADE4F8883DD
:103430009983AA83BB83CF55D140CD58DE4F888175
:10344000C357D140882311F40C94A8098F5FCD583D
:10345000DE4F8883C357D1400C94A8098FEFC45A1C
:10346000DE4F8883CC55D140C35ADE4F8883CD557B
:10347000D140C25ADE4F8883CE55D1408D819E8186
:103480000E94AF05DC0111964C911197242F30E07A
:10349000322F22274C91420F532F511D052E000C25
:1034A000660B770B12968C90912CB12CA12C5401A9
:1034B00099248824480D591D6A1D7B1DC15ADE4F71
:1034C000488359836A837B83CF55D1400E94352C32
:1034D000CD58DE4F8881C357D140882311F40C9416
:1034E000A8098150CD58DE4F8883C357D1400C9432
:1034F000A809C45ADE4F0883CC55D140C15ADE4FCB
:1035000088819981AA81BB81CF55D1400296A11DA6
:10351000B11DC15ADE4F88839983AA83BB83CF55DF
:10352000D1400C94A809C35ADE4F0883CD55D14031
:10353000C15ADE4F88819981AA81BB81CF55D14084
:103540000296A11DB11DC15ADE4F88839983AA83BB
:10355000BB83CF55D1400C94A809C25ADE4F0883D3
:10356000CE55D140C15ADE4F88819981AA81BB8155
:10357000CF55D1400296A11DB11DC15ADE4F88839F
:103580009983AA83BB83CF55D1400C94A809E02F1F
:10359000EF7329E130E02C0F3D1F2E0F311DF90193
:1035A000C45ADE4F8881CC55D1408083C15ADE4F4A
:1035B00088819981AA81BB81CF55D1400296A11DF6
:1035C000B11DC15ADE4F88839983AA83BB83CF552F
:1035D000D1400C94A809E02FEF7349E150E04C0F63
:1035E0005D1F4E0F511DFA01C35ADE4F8881CD5524
:1035F000D1408083C15ADE4F88819981AA81BB81E5
:10360000CF55D1400296A11DB11DC15ADE4F88830E
:103610009983AA83BB83CF55D1400C94A809E02F8E
:10362000EF7389E190E08C0F9D1F8E0F911DFC01BF
:10363000C25ADE4F8881CE55D1408083C15ADE4FB9
:1036400088819981AA81BB81CF55D1400296A11D65
:10365000B11DC15ADE4F88839983AA83BB83CF559E
:10366000D1400C94A809C45ADE4F0883CC55D140F0
:10367000C35ADE4F1883CD55D140C25ADE4F6882FF
:10368000CE55D1408D819E810E94AF05DC011196FF
:103690004C911197242F30E0322F22274C91420F6A
:1036A000532F511D052E000C660B770B12968C9034
:1036B000912CB12CA12C540199248824480D591D1A
:1036C0006A1D7B1DC15ADE4F488359836A837B8301
:1036D000CF55D1400E94352CCD58DE4F8881C3573D
:1036E000D140882311F40C94A8098150CD58DE4FA5
:1036F0008883C357D1400C94A809ED81FE81A02F87
:10370000AF7329E130E02C0F3D1F2A0F311DD90185
:103710009C918081DF01A80FB11D11969C938F5F52
:103720008083C15ADE4F88819981AA81BB81CF55A0
:10373000D1400296A11DB11DC15ADE4F88839983E5
:10374000AA83BB83CF55D1400C94A809AD81BE811B
:10375000EC91E150EC93EA0FFB2FF11D9181E02FEA
:10376000EF7349E150E04C0F5D1F4E0F511DFA0100
:103770009083C15ADE4F88819981AA81BB81CF5540
:10378000D1400296A11DB11DC15ADE4F8883998395
:10379000AA83BB83CF55D1400C94A809AD81BE81CB
:1037A000E02FEF7389E190E08C0F9D1F8E0F911D2C
:1037B000FC0180818C93C15ADE4F88819981AA8156
:1037C000BB81CF55D1400296A11DB11DC15ADE4F1C
:1037D00088839983AA83BB83CF55D1400C94A809D1
:1037E000ED81FE819081E02FEF73A9E1B0E0AC0F95
:1037F000BD1FAE0FB11DFD019083C15ADE4F888100
:103800009981AA81BB81CF55D1400296A11DB11DDE
:10381000C15ADE4F88839983AA83BB83CF55D14099
:103820000C94A809ED89FE8920819181DF01AF56B2
:10383000BF4F8C9181508C93AF0142585F4F628192
:103840007381619371934E175F07C9F7E02FEF7390
:1038500049E150E04C0F5D1F4E0F511DFA012083CE
:10386000E12FEF73A9E1B0E0AC0FBD1FAE0FB11DAA
:10387000FD01892F8795882787958083C15ADE4F60
:1038800088819981AA81BB81CF55D1400396A11D22
:10389000B11DC15ADE4F88839983AA83BB83CF555C
:1038A000D1400C94A809ED89FE89E057FF4F81E0D3
:1038B0008083C15ADE4F88819981AA81BB81CF550F
:1038C000D1400196A11DB11DC15ADE4F8883998355
:1038D000AA83BB83CF55D1400C94A809ED89FE89FA
:1038E000E057FF4F1082C15ADE4F88819981AA812B
:1038F000BB81CF55D1400196A11DB11DC15ADE4FEC
:1039000088839983AA83BB83CF55D1400C94A8099F
:10391000ED89FE89EE56FF4FA02FAF7329E130E00D
:103920002C0F3D1F2A0F311DD9018C918083C15A64
:10393000DE4F88819981AA81BB81CF55D140039602
:10394000A11DB11DC15ADE4F88839983AA83BB8311
:10395000CF55D1400C94A809ED89FE89EF56FF4F51
:103960001082C15ADE4F88819981AA81BB81CF55CF
:10397000D1400196A11DB11DC15ADE4F88839983A4
:10398000AA83BB83CF55D1400C94A80990E080E076
:10399000EB89FC89E80FF91F1082019680359105AB
:1039A000B9F7C15ADE4F88819981AA81BB81CF5571
:1039B000D1400196A11DB11DC15ADE4F8883998364
:1039C000AA83BB83CF55D1400C94A8098B899C89CD
:1039D0000E949A04C15ADE4F88819981AA81BB81D5
:1039E000CF55D1400196A11DB11DC15ADE4F88832C
:1039F0009983AA83BB83CF55D1400C94A8092B8906
:103A00003C89E02FEF7349E150E04C0F5D1F4E0FF2
:103A1000511DFA01B080A901405B5F4FDA017C9132
:103A200011966C91872F90E0E4E16E9F800D911DBF
:103A30001124880F991F880F991F8434F1E09F0784
:103A400044F49695879596958795F901E80FF91FA7
:103A5000B0822E5A3F4FF9018081882359F07F5F51
:103A6000FA017083743131F410826F5F6C936430AB
:103A700009F41C92C15ADE4F88819981AA81BB81C9
:103A8000CF55D1400296A11DB11DC15ADE4F88838A
:103A90009983AA83BB83CF55D1400C94A80930E009
:103AA00020E0A02FAF7349E150E04C0F5D1F4A0F9B
:103AB000511DDA01EB89FC898C91E20FF31F8083A1
:103AC0002F5F3F4F20353105A9F7C15ADE4F88815E
:103AD0009981AA81BB81CF55D1400296A11DB11D0C
:103AE000C15ADE4F88839983AA83BB83CF55D140C7
:103AF0000C94A80930E020E08B899C8920353105A1
:103B000039F0820F931FDC011C922F5F3F4FF4CFDF
:103B1000FC01E05BFF4F10823196108231961082DB
:103B20000E949A04C15ADE4F88819981AA81BB8183
:103B3000CF55D1400196A11DB11DC15ADE4F8883DA
:103B40009983AA83BB83CF55D1400C94A809E02F59
:103B5000EF7329E130E02C0F3D1F2E0F311DF901CD
:103B60008081EB89FC89E05BFF4F8083C15ADE4F87
:103B700088819981AA81BB81CF55D1400296A11D30
:103B8000B11DC15ADE4F88839983AA83BB83CF5569
:103B9000D1400C94A809E02FEF7349E150E04C0F9D
:103BA0005D1F4E0F511DFA018081EB89FC89EF5A90
:103BB000FF4F8083C15ADE4F88819981AA81BB81E2
:103BC000CF55D1400296A11DB11DC15ADE4F888349
:103BD0009983AA83BB83CF55D1400C94A8092B8924
:103BE0003C89E02FEF7389E190E08C0F9D1F8E0FD1
:103BF000911DFC018081F901E05BFF4F8083E12F83
:103C0000EF73A9E1B0E0AC0FBD1FAE0FB11DFD0118
:103C100080812F5A3F4FF9018083C15ADE4F88813E
:103C20009981AA81BB81CF55D1400396A11DB11DB9
:103C3000C15ADE4F88839983AA83BB83CF55D14075
:103C40000C94A8094B895C89E62DEF7329E130E0DB
:103C50002C0F3D1F2E0F311DF9016081E12FEF73F5
:103C600089E190E08C0F9D1F8E0F911DFC018081DA
:103C7000282F30E0322F2227E02FEF73A9E1B0E0A8
:103C8000AC0FBD1FAE0FB11DFD018081820F932FC0
:103C9000911D9C0123703327232B61F48434B1E000
:103CA0009B0740F49695879596958795840F951F69
:103CB000FC016083C15ADE4F88819981AA81BB8152
:103CC000CF55D1400496A11DB11DC15ADE4F888346
:103CD0009983AA83BB83CF55D1400C94A809C15ABC
:103CE000DE4F88819981AA81BB81CF55D14003964F
:103CF000A11DB11DC15ADE4F88839983AA83BB835E
:103D0000CF55D1400C94A809C15ADE4F88819981C2
:103D1000AA81BB81CF55D1400296A11DB11DC15AC8
:103D2000DE4F88839983AA83BB83CF55D1400C94FF
:103D3000A8090F73E02FF0E07696EE0FFF1FEE0F4D
:103D4000FF1F21E030E02C0F3D1FE20FF31FA12FDA
:103D5000AF7349E150E04C0F5D1F4A0F511DDA016E
:103D60008C91208131812F5F3F4F820F932F911DC6
:103D700091838083C15ADE4F88819981AA81BB815A
:103D8000CF55D1400396A11DB11DC15ADE4F888386
:103D90009983AA83BB83CF55D1400C94A8090F7394
:103DA00054E0059FF001112481E090E08C0F9D1FED
:103DB000E80FF91FE65AFF4FA12FAF7329E130E05A
:103DC0002C0F3D1F2A0F311DD9018C91208131818B
:103DD0002F5F3F4F820F932F911D91838083C15A94
:103DE000DE4F88819981AA81BB81CF55D14003964E
:103DF000A11DB11DC15ADE4F88839983AA83BB835D
:103E0000CF55D1400C94A8090F73802F90E0FC018E
:103E10007696EE0FFF1FEE0FFF1F41E050E04C0FB4
:103E20005D1FE40FF51F11821082FC01EE0FFF1FD2
:103E3000EE0FFF1FE40FF51FE65AFF4F11821082AD
:103E4000C15ADE4F88819981AA81BB81CF55D1406B
:103E50000296A11DB11DC15ADE4F88839983AA83A2
:103E6000BB83CF55D1400C94A809D6011C92C15AEE
:103E7000DE4F88819981AA81BB81CF55D1400196BF
:103E8000A11DB11DC15ADE4F88839983AA83BB83CC
:103E9000CF55D1400C94A8092B893C89E12FEF73B1
:103EA00049E150E04C0F5D1F4E0F511DFA0180811A
:103EB000482F50E0542F4427E02FEF7389E190E022
:103EC0008C0F9D1F8E0F911DFC018081840F952FFB
:103ED000911DE62DEF73F0E0AC0143705527452BA3
:103EE00041F58434A1E09A0720F59695879596953B
:103EF0008795820F931FDC018C9129E130E02C0F14
:103F00003D1FE20FF31F8083C15ADE4F88819981E4
:103F1000AA81BB81CF55D1400496A11DB11DC15AC4
:103F2000DE4F88839983AA83BB83CF55D1400C94FD
:103F3000A80980E0E2CFE02FEF7349E150E04C0F99
:103F40005D1F4E0F511DFA011082C15ADE4F88814C
:103F50009981AA81BB81CF55D1400296A11DB11D87
:103F6000C15ADE4F88839983AA83BB83CF55D14042
:103F70000C94A809E02FEF7389E190E08C0F9D1F4E
:103F80008E0F911DFC0181E08083C15ADE4F888134
:103F90009981AA81BB81CF55D1400296A11DB11D47
:103FA000C15ADE4F88839983AA83BB83CF55D14002
:103FB0000C94A809AF81B885E02FEF7329E130E0B8
:103FC0002C0F3D1F2E0F311DF901808190E01396BB
:103FD0009C938E9312970F81188582E090E00E9447
:103FE000992B5C0142E050E0BC01C80102960E949E
:103FF000C202A5016EE171E082E090E00E949302AE
:10400000C5010E94352CC15ADE4F88819981AA8151
:10401000BB81CF55D1400296A11DB11DC15ADE4FC3
:1040200088839983AA83BB83CF55D1400C94A80978
:10403000AF81B885E02FEF7349E150E04C0F5D1F71
:104040004E0F511DFA01808190E013969C938E9340
:104050001297AF80B8841F73612E712C82E090E0BC
:104060000E94992B4C0142E050E0BC01C501029630
:104070000E94C202A4016BE171E082E090E00E9424
:104080009302C4010E94352C0E94D605322E432E85
:10409000542E852E962EA72EB82EC858DE4F288374
:1040A000C857D140C758DE4F3883C957D140C6588A
:1040B000DE4F4883CA57D140C558DE4F5883CB578F
:1040C000D140C458DE4F6883CC57D140C358DE4F2F
:1040D0007883CD57D140C258DE4F8883CE57D14028
:1040E0006BE171E0C157DE4F88819981CF58D14093
:1040F0000E94900081110AC0232D342D452D582D8A
:10410000692D7A2D8B2D0E942105BECFC358DE4F1D
:1041100088819981CD57D140DC01BC900E94352C1B
:10412000E9E1F0E0EC0FFD1FE60DF71DB082C15A8A
:10413000DE4F88819981AA81BB81CF55D1400396FA
:10414000A11DB11DC15ADE4F88839983AA83BB8309
:10415000CF55D1400C94A809AF81B885E02FEF73FB
:1041600029E130E02C0F3D1F2E0F311DF901808118
:1041700090E013969C938E931297AF80B8841F7330
:10418000612E712C82E090E00E94992B4C0142E05C
:1041900050E0BC01C50102960E94C202A4016EE17A
:1041A00071E082E090E00E949302C4010E94352CED
:1041B0000E94D605322E432E542E852E962EA72EE3
:1041C000B82EC858DE4F2883C857D140C758DE4F95
:1041D0003883C957D140C658DE4F4883CA57D140AB
:1041E000C558DE4F5883CB57D140C458DE4F688343
:1041F000CC57D140C358DE4F7883CD57D140C258F9
:10420000DE4F8883CE57D1406EE171E0C157DE4F5B
:1042100088819981CF58D1400E94900081110AC0B5
:10422000232D342D452D582D692D7A2D8B2D0E944F
:104230002105BECFC358DE4F88819981CD57D1402B
:10424000DC01BC900E94352CE9E1F0E0EC0FFD1F91
:10425000E60DF71DB082C15ADE4F88819981AA818F
:10426000BB81CF55D1400396A11DB11DC15ADE4F70
:1042700088839983AA83BB83CF55D1400C94A80926
:10428000AF81B885E02FEF7329E130E02C0F3D1F9F
:104290002E0F311DF901808190E013969C938E932F
:1042A0001297AF80B884E12FEF7349E150E04C0FD3
:1042B0005D1F4E0F511DFA01708083E090E00E9457
:1042C000992B4C0142E050E0BC01C50102960E94CE
:1042D000C202D40112967C92A4016EE171E083E0E7
:1042E00090E00E949302C4010E94352CC15ADE4F17
:1042F00088819981AA81BB81CF55D1400396A11DA8
:10430000B11DC15ADE4F88839983AA83BB83CF55E1
:10431000D1400C94A809AF81B885E02FEF7329E153
:1043200030E02C0F3D1F2E0F311DF901808190E0F0
:1043300013969C938E931297AF80B8841F73612E4F
:10434000712C82E090E00E94992B4C0142E050E0F9
:10435000BC01C50102960E94C202A40161E271E0A3
:1043600082E090E00E949302C4010E94352C0E94DA
:10437000D605322E432E542E852E962EA72EB82EDD
:10438000C858DE4F2883C857D140C758DE4F3883FE
:10439000C957D140C658DE4F4883CA57D140C55887
:1043A000DE4F5883CB57D140C458DE4F6883CC577B
:1043B000D140C358DE4F7883CD57D140C258DE4F2D
:1043C0008883CE57D14061E271E0C157DE4F8881CA
:1043D0009981CF58D1400E94900081110AC0232DAD
:1043E000342D452D582D692D7A2D8B2D0E942105B8
:1043F000BECFC358DE4F88819981CD57D140DC01B3
:10440000BC900E94352CE9E1F0E0EC0FFD1FE60DB9
:10441000F71DB082C15ADE4F88819981AA81BB8184
:10442000CF55D1400396A11DB11DC15ADE4F8883DF
:104430009983AA83BB83CF55D1400C94A80984E209
:1044400091E00E94BB02C15ADE4F88819981AA8106
:10445000BB81CF55D1400196A11DB11DC15ADE4F80
:1044600088839983AA83BB83CF55D1400C94A80934
:10447000AF81B885E02FEF7329E130E02C0F3D1FAD
:104480002E0F311DF901808190E013969C938E933D
:1044900012978F80988482E090E00E94992B5C01B3
:1044A00042E050E0BC01C40102960E94C202A50194
:1044B00067E271E082E090E00E949302C5010E94F1
:1044C000352C0E94D605322E432E542E852E962E44
:1044D000A72EB82EC858DE4F2883C857D140C758DA
:1044E000DE4F3883C957D140C658DE4F4883CA577C
:1044F000D140C558DE4F5883CB57D140C458DE4F0A
:104500006883CC57D140C358DE4F7883CD57D14014
:10451000C258DE4F8883CE57D14067E271E0C15761
:10452000DE4F88819981CF58D1400E94900081113F
:104530000AC0232D342D452D582D692D7A2D8B2D14
:104540000E942105BECFC358DE4F88819981CD5787
:10455000D140DC01AC901196BC900E94352CE12F2B
:10456000EF7329E130E02C0F3D1F2E0F311DF901B3
:10457000A082E62DEF7349E150E04C0F5D1F4E0F16
:10458000511DFA01B082C15ADE4F88819981AA81FA
:10459000BB81CF55D1400496A11DB11DC15ADE4F3C
:1045A00088839983AA83BB83CF55D1400C94A809F3
:1045B000AF81B885E02FEF7389E190E08C0F9D1FEC
:1045C0008E0F911DFC01808190E013969C938E9339
:1045D00012978F80988482E090E00E94992B5C0172
:1045E00042E050E0BC01C40102960E94C202A50153
:1045F0006AE271E082E090E00E949302C5010E94AD
:10460000352C0E94D6052901642E852E962EA72EC4
:10461000B82EC858DE4F2883C857D140C758DE4F40
:104620005882C957D140C658DE4F4883CA57D14037
:10463000C558DE4F5883CB57D140C458DE4F6883EE
:10464000CC57D140C358DE4F7883CD57D140C258A4
:10465000DE4F8883CE57D1406AE271E0C157DE4F0A
:1046600088819981CF58D1400E949000811109C062
:104670009201462D582D692D7A2D8B2D0E942105F2
:10468000C0CFC358DE4F88819981CD57D14001E01A
:10469000DC012C91213009F000E00E94352CE12F43
:1046A000EF7329E130E02C0F3D1F2E0F311DF90172
:1046B0000083C15ADE4F88819981AA81BB81CF5581
:1046C000D1400396A11DB11DC15ADE4F8883998345
:1046D000AA83BB83CF55D1400C94A809AF81B8857C
:1046E000E02FEF7349E150E04C0F5D1F4E0F511D5D
:1046F000FA01808190E013969C938E931297C15A91
:10470000DE4F88819981AA81BB81CF55D140029625
:10471000A11DB11DC15ADE4F88839983AA83BB8333
:10472000CF55D1400C94A80981E0C359DE4F88834E
:10473000CD56D140802F90E00196212F30E0322FCE
:104740002227820F931FCF58DE4F99838883C1574A
:10475000D140C15ADE4F88819981AA81BB81CF5552
:10476000D1400396A11DB11DC15ADE4F88839983A4
:10477000AA83BB83CF55D1400C94A809C359DE4FFF
:104780001882CD56D140C15ADE4F88819981AA81C5
:10479000BB81CF55D1400196A11DB11DC15ADE4F3D
:1047A00088839983AA83BB83CF55D1400C94A809F1
:1047B000EB89FC89EE5AFF4F81E08083C15ADE4FBE
:1047C00088819981AA81BB81CF55D1400196A11DD5
:1047D000B11DC15ADE4F88839983AA83BB83CF550D
:1047E000D1400C94A809EB89FC89EE5AFF4F108246
:1047F000C15ADE4F88819981AA81BB81CF55D140B2
:104800000196A11DB11DC15ADE4F88839983AA83E9
:10481000BB83CF55D1400C94A8090E947E02E02FA3
:10482000EF73A9E1B0E0AC0FBD1FAE0FB11DFD01EC
:104830008083C15ADE4F88819981AA81BB81CF557F
:10484000D1400296A11DB11DC15ADE4F88839983C4
:10485000AA83BB83CF55D1400C94A8090E946E0255
:10486000E02FEF7329E130E02C0F3D1F2E0F311D9B
:10487000F9018083C15ADE4F88819981AA81BB8169
:10488000CF55D1400296A11DB11DC15ADE4F88837C
:104890009983AA83BB83CF55D1400C94A809E12FFB
:1048A000EF7349E150E04C0F5D1F4E0F511DFA01AF
:1048B0004080512C542C4424E02FEF7389E190E088
:1048C0008C0F9D1F8E0F911DFC018081480E511C85
:1048D000809136018330D1F4E8ECF0E0149117FFB9
:1048E00045C0C15ADE4F88819981AA81BB81CF55CD
:1048F000D1400396A11DB11DC15ADE4F8883998313
:10490000AA83BB83CF55D1400C94A8098F3F49F7A8
:1049100083E080933601E8ECF0E014911F3F09F347
:10492000113009F4E5C050F0123009F4FFC017FD52
:10493000D8CF61E083E00E9427021EC014BC15BCE2
:1049400084B5826084BD85B5816085BDEFE8F0E007
:10495000E491F0E0EE0FFF1FEE57FF4F8591949129
:10496000E3EAF0E0E491E093AF0110E061E083E07E
:104970000E9427021123B1F04201052C000CAA0865
:10498000BB0860E072E18AE790E0A50194010E9413
:104990003D2BBA01A9014150510961097109123039
:1049A00009F044C1052C000C6608770860E072E14C
:1049B0008AE790E0A30192010E943D2B49015A0130
:1049C000BA01A90141505109610971094F3F5105CF
:1049D0006105710509F00CF40EC160E472E48FE02A
:1049E00090E0A30192010E943D2BBA01A901415020
:1049F000510961097109123009F0BAC082E04F3FD4
:104A000051056105710509F00CF463C060E970EDB2
:104A100083E090E0A30192010E943D2BBA01A9011D
:104A2000415051096109710983E04F3F510561050A
:104A3000710509F00CF44DC068E478EE81E090E077
:104A4000A30192010E943D2BBA01A90141505109D5
:104A50006109710984E04F3F510561057105C9F194
:104A6000C4F164E274EF80E090E0A30192010E943F
:104A70003D2BBA01A901415051096109710985E035
:104A80004F3F51056105710521F118F162E17AE7A7
:104A900080E090E0A30192010E943D2BBA01A901A0
:104AA000415051096109710986E04F3F5105610587
:104AB000710579F070F0B501A4018AE075956795EC
:104AC000579547958A95D1F7415051096109710968
:104AD00087E09091B100987F892B8093B1001130CD
:104AE00009F4C2C0123009F4D6C01111FACE8AC03E
:104AF00010928000109281008091810088608093E4
:104B0000810080918100816080938100EFE8F0E076
:104B1000E491F0E0EE0FFF1FEE57FF4F8591949167
:104B2000E3EAF0E0E491E093AE0120CF1092B00010
:104B30001092B1008091B00082608093B0008091AB
:104B4000B10081608093B100EFE8F0E0E491F0E023
:104B5000EE0FFF1FEE57FF4F859194919093C40184
:104B60008093C301E3EAF0E0E491E093C501FECE57
:104B70004F3F51056105710509F00CF455C068E41B
:104B800078EE81E090E0A30192010E943D2BBA01F2
:104B9000A901415051096109710984E0111170CFD7
:104BA00083E04F3F51056105710541F13CF162E140
:104BB0007AE780E090E0A30192010E943D2BBA01C8
:104BC000A901415051096109710984E04F3F510524
:104BD0006105710599F090F0B501A4019AE0759511
:104BE0006795579547959A95D1F7415051096109B5
:104BF000710985E003C081E011116BCF95B5987FF5
:104C0000892B85BD47BD8FEF9FEFDC018093B401F9
:104C10009093B501A093B601B093B70180916E0057
:104C2000826080936E005DCE82E0E6CF4115510533
:104C300091E0690771056CF168E478EE81E090E03D
:104C4000A50194010E943D2BBA01A90141505109CF
:104C50006109710993E0113009F041CF8091810021
:104C6000887F892B8093810050938900409388002E
:104C70008FEF9FEFDC018093B0019093B101A0937F
:104C8000B201B093B30180916F00826080936F0096
:104C900028CE91E0E0CF4093B3008FEF9FEFDC018F
:104CA0008093C6019093C701A093C801B093C90136
:104CB0008091700082608093700013CE83E00E9428
:104CC000FB01C15ADE4F88819981AA81BB81CF55F2
:104CD000D1400196A11DB11DC15ADE4F8883998331
:104CE000AA83BB83CF55D1400C94A809C15ADE4F8B
:104CF00088819981AA81BB81CF55D1400496A11D9D
:104D0000B11DC15ADE4F88839983AA83BB83CF55D7
:104D1000D140AD81BE81E62DEF7329E130E02C0F4B
:104D20003D1F2E0F311DF9019081E12FEF7349E1F5
:104D300050E04C0F5D1F4E0F511DFA012081E02FF6
:104D4000EF7349E150E04C0F5D1F4E0F511DFA010A
:104D500030818C91FD01E80FF11D3183E1E0E80F16
:104D6000EA0FFB2FF11D2183E2E0E80FEA0FFB2F92
:104D7000F11D91838D5F8C930C94A809C15ADE4F6D
:104D800088819981AA81BB81CF55D1400496A11D0C
:104D9000B11DC15ADE4F88839983AA83BB83CF5547
:104DA000D1408D819E810E94AF05DC019C91E02F56
:104DB000EF7329E130E02C0F3D1F2E0F311DF9015B
:104DC000908311968C911197E12FEF7349E150E098
:104DD0004C0F5D1F4E0F511DFA01808312968C916E
:104DE0001297E62DEF7329E130E02C0F3D1F2E0FB7
:104DF000311DF9018083CD010E94352C0C94A80946
:104E0000C15ADE4F88819981AA81BB81CF55D1409B
:104E10000196A11DB11DC15ADE4F88839983AA83D3
:104E2000BB83CF55D140EB81FC8181859285892B55
:104E300011F40C94A809C159DE4F8881CF56D14096
:104E400091E08927C259DE4F8883CE56D1400C9419
:104E5000A809C15ADE4F88819981AA81BB81CF55AB
:104E6000D1400196A11DB11DC15ADE4F888399839F
:104E7000AA83BB83CF55D140C159DE4F8881CF561D
:104E8000D140C259DE4F8883CE56D1400C94A80938
:104E9000C15ADE4F88819981AA81BB81CF55D1400B
:104EA0000196A11DB11DC15ADE4F88839983AA8343
:104EB000BB83CF55D140EB81FC8181859285892BC5
:104EC00011F40C94A809C059DE4F8881C057D14015
:104ED00091E08927C059DE4F8883C057D1400C9498
:104EE000A809C15ADE4F88819981AA81BB81CF551B
:104EF000D1400196A11DB11DC15ADE4F888399830F
:104F0000AA83BB83CF55D140AB80BC80D501199615
:104F10008D919C91892B11F00C94A80980E092E06E
:104F20000E94992BF501928781870C94A809C15A98
:104F3000DE4F88819981AA81BB81CF55D1400196EE
:104F4000A11DB11DC15ADE4F88839983AA83BB83FB
:104F5000CF55D140AB80BC80D50119968D919C91E5
:104F6000009729F00E94352CF50112861186C1594F
:104F7000DE4F1882CF56D140C059DE4F1882C0573D
:104F8000D140C259DE4F1882CE56D1400C94A809A8
:104F9000C15ADE4F88819981AA81BB81CF55D1400A
:104FA0000196A11DB11DC15ADE4F88839983AA8342
:104FB000BB83CF55D140EB81FC81CA58DE4F88813D
:104FC000C657D14090E0982F8827CB58DE4F2881D4
:104FD000C557D140820F911D948383830C94A809F7
:104FE000C15ADE4F88819981AA81BB81CF55D140BA
:104FF0000196A11DB11DC15ADE4F88839983AA83F2
:10500000BB83CF55D140EB81FC81CA58DE4F8881EC
:10501000C657D14090E0982F8827CB58DE4F288183
:10502000C557D140820F911D968385830C94A809A2
:10503000C15ADE4F88819981AA81BB81CF55D14069
:105040000396A11DB11DC15ADE4F88839983AA839F
:10505000BB83CF55D140EB81FC8101700283EB8192
:10506000FC81117011830C94A809C15ADE4F88810C
:105070009981AA81BB81CF55D1400496A11DB11D54
:10508000C15ADE4F88839983AA83BB83CF55D14011
:10509000EB81FC81802F90E00196212F30E0322FB0
:1050A0002227820F931F908787830C94A809C15AE7
:1050B000DE4F88819981AA81BB81CF55D14001966D
:1050C000A11DB11DC15ADE4F88839983AA83BB837A
:1050D000CF55D140AB80BC80D50119968D919C9164
:1050E000892B21F583E090E00E94992B4C01F5017A
:1050F00083819481D40111969C938E9385819681AE
:1051000013969C938E9312978781908515969C9306
:105110008E931497A40163E371E08CE090E00E9409
:105120009302C4010E94352C0C94A809F5018181D9
:10513000282F30E0220F331F8281820F932F911D81
:105140008230910509F4AEC08330910509F4E2C0C4
:10515000019721F18CE090E00E94992B4C01D50140
:1051600013968D919C911497F401918380831596E9
:105170008D919C9116979383828317968D919C9124
:1051800095838483A40163E371E08CE090E00E9446
:105190009302C4010E94352C0C94A80988E090E089
:1051A0000E94992B4C01D50113968D919C911497D7
:1051B000F4019183808317968D919C9193838283D0
:1051C000A40160E371E088E090E00E949302C401D2
:1051D0000E94352C0E94D605322E432E542E652E69
:1051E000762E872E982EC858DE4F2883C857D14078
:1051F000C758DE4F3883C957D140C658DE4F488361
:10520000CA57D140C558DE4F5883CB57D140C458F8
:10521000DE4F6883CC57D140C358DE4F7883CD57DB
:10522000D140C258DE4F8883CE57D14060E371E051
:10523000C157DE4F88819981CF58D1400E9490009C
:10524000811113C0232D342D452D562D672D782D1A
:10525000892D0E942105C358DE4F88819981CD5741
:10526000D1400E94352C0C94A809912C812CD50199
:1052700017968D919C918816990668F78AEC91E0B3
:105280000E94DE00F50125813681280D391D31701F
:1052900041855285240F351FD9018C93BFEF8B1A9E
:1052A0009B0AE5CF88E090E00E94992B4C01F50124
:1052B00085819681D40111969C938E9387819085E8
:1052C00013969C938E931297A4016DE271E0089659
:1052D0000E949302C4010E94352C912C812CF5016F
:1052E000878190858816990610F00C94A80983810F
:1052F0009481880D991D917021853285820F931FAD
:10530000DC016C918AEC91E00E944201BFEF8B1AA4
:105310009B0AE5CF90E080E0F50127813085821778
:10532000930710F00C94A809218532850380F4813D
:10533000E02DE80FF91FF170E20FF31F6081D50136
:1053400015964D915C91480F591F5170240F351FD0
:10535000F90160830196E0CF1F920F920FB60F9272
:1053600011242F933F934F935F936F937F938F936A
:105370009F93AF93BF93EF93FF938091C60190915A
:10538000C701A091C801B091C901892B8A2B8B2B31
:10539000D1F19091C501E091C301F091C4018081E8
:1053A000892780838091C6019091C701A091C8018F
:1053B000B091C901181619061A061B069CF48091B3
:1053C000C6019091C701A091C801B091C901019790
:1053D000A109B1098093C6019093C701A093C801A8
:1053E000B093C901FF91EF91BF91AF919F918F91C0
:1053F0007F916F915F914F913F912F910F900FBED1
:105400000F901F901895809136010E94FB01EACF02
:105410001F920F920FB60F9211242F933F934F9329
:105420005F936F937F938F939F93AF93BF93EF930C
:10543000FF938AEC91E00E942001FF91EF91BF91D0
:10544000AF919F918F917F916F915F914F913F911C
:105450002F910F900FBE0F901F9018951F920F92D3
:105460000FB60F9211242F938F939F93EF93FF9377
:10547000E091DA01F091DB018081E091E001F091AF
:10548000E10182FD1BC090818091E3018F5F8F73EA
:105490002091E401821741F0E091E301F0E0E6534E
:1054A000FE4F958F8093E301FF91EF919F918F9134
:1054B0002F910F900FBE0F901F9018958081F4CF01
:1054C0001F920F920FB60F9211242F933F938F9339
:1054D0009F93AF93BF938091BF019091C001A09122
:1054E000C101B091C2013091BE0123E0230F2D37DD
:1054F00058F50196A11DB11D2093BE018093BF01F7
:105500009093C001A093C101B093C2018091BA01F0
:105510009091BB01A091BC01B091BD010196A11D6C
:10552000B11D8093BA019093BB01A093BC01B093CD
:10553000BD01BF91AF919F918F913F912F910F909E
:105540000FBE0F901F90189526E8230F0296A11DFD
:10555000B11DD2CFEAECF1E01382128288EE93E023
:10556000A0E0B0E084839583A683B78381E491E0D3
:105570009183808385EC90E09587848784EC90E02C
:105580009787868780EC90E0918B808B81EC90E010
:10559000938B828B82EC90E0958B848B86EC90E0F1
:1055A000978B868B118E128E138E148EE7E6F2E0A7
:1055B0001382128283E591E0918380838CE084835F
:1055C0008FEF85838DE086838EE087838FE08087F1
:1055D00080E1818781E1828713861486158616868D
:1055E000178661E080E10C94E503789484B58260CD
:1055F00084BD84B5816084BD85B5826085BD85B577
:10560000816085BDEEE6F0E0808181608083E1E825
:10561000F0E010828081826080838081816080835D
:10562000E0E8F0E0808181608083E1EBF0E0808160
:1056300084608083E0EBF0E0808181608083EAE732
:10564000F0E08081846080838081826080838081BB
:10565000816080838081806880831092C1000E9475
:105660002408991B79E004C0991F961708F0961B2F
:10567000881F7A95C9F780950895052E97FB1EF42B
:1056800000940E94542B57FD07D00E94772B07FCF3
:1056900003D04EF40C94542B5095409530952195A1
:1056A0003F4F4F4F5F4F089590958095709561954E
:1056B0007F4F8F4F9F4F0895EE0FFF1F0590F4917E
:1056C000E02D09940024A7FD00942A0F301D401DF1
:1056D000501D601D701D801D901D08952A153B05ED
:1056E0004C055D056E057F05800791070895A1E2D1
:1056F0001A2EAA1BBB1BFD010DC0AA1FBB1FEE1F4C
:10570000FF1FA217B307E407F50720F0A21BB30B96
:10571000E40BF50B661F771F881F991F1A9469F712
:1057200060957095809590959B01AC01BD01CF016E
:1057300008950F931F93CF93DF938230910510F458
:1057400082E090E0E0918102F091820230E020E07E
:10575000B0E0A0E0309799F42115310509F44AC072
:10576000281B390B24303105D8F58A819B816115BE
:10577000710589F1FB0193838283FE0111C0408191
:1057800051810281138148175907E0F048175907E2
:1057900099F4109761F012960C93129713961C933C
:1057A0003296CF01DF91CF911F910F910895009311
:1057B000810210938202F4CF2115310551F0421776
:1057C000530738F0A901DB019A01BD01DF01F8019F
:1057D000C1CFEF01F9CF9093820280938102CDCFA8
:1057E000FE01E20FF31F8193919322503109398317
:1057F0002883D7CF20917F0230918002232B41F460
:105800002091390130913A013093800220937F0238
:1058100020913701309138012115310541F42DB720
:105820003EB740913B0150913C01241B350BE09168
:105830007F02F0918002E217F307A0F42E1B3F0BCA
:105840002817390778F0AC014E5F5F4F24173507F2
:1058500048F04E0F5F1F5093800240937F02819368
:1058600091939FCFF0E0E0E09CCFCF93DF93009740
:10587000E9F0FC01329713821282A0918102B0916B
:105880008202ED0130E020E01097A1F42081318107
:10589000820F931F20917F023091800228173907D1
:1058A00009F061C0F0938002E0937F02DF91CF9115
:1058B0000895EA01CE17DF07E8F54A815B819E0172
:1058C00041155105B1F7E901FB83EA8349915991EB
:1058D000C40FD51FEC17FD0761F4808191810296FA
:1058E000840F951FE90199838883828193819B832B
:1058F0008A83F0E0E0E012968D919C9113970097D7
:10590000B9F52D913C911197CD010296820F931F0D
:1059100020917F02309180022817390739F630979D
:1059200051F51092820210928102B0938002A093EE
:105930007F02BCCFD383C28340815181840F951FE6
:10594000C817D90761F44E5F5F4F88819981480F6E
:10595000591F518340838A819B81938382832115C0
:10596000310509F0B0CFF0938202E09381029ECF1F
:10597000FD01DC01C0CF13821282D7CFF894FFCF94
:10598000464552455845454E525253544754494452
:1059900042474D52444D57524D534945415345524C
:1059A000444557414552414549444550494D574268
:1059B0004D52424D4350FF00008302800000000022
:1059C000004201A200CF008F010001DE00F20000C2
:1059D0000000009404A2006B026A02466174616CCC
:1059E000204572726F72203078303200556E6B6EC7
:1059F0006F776E2073657269616C20696E73742EA7
:105A0000005265633A004578703A004572726F72D1
:105A100020307830300057616974696E6720666F96
:0C5A2000722073657269616C2E2E00000C
:107E0000112484B714BE81FFF0D085E080938100F7
:107E100082E08093C00088E18093C10086E0809377
:107E2000C20080E18093C4008EE0C9D0259A86E02C
:107E300020E33CEF91E0309385002093840096BBD3
:107E4000B09BFECF1D9AA8958150A9F7CC24DD24C4
:107E500088248394B5E0AB2EA1E19A2EF3E0BF2EE7
:107E6000A2D0813461F49FD0082FAFD0023811F036
:107E7000013811F484E001C083E08DD089C08234E0
:107E800011F484E103C0853419F485E0A6D080C0E4
:107E9000853579F488D0E82EFF2485D0082F10E0AE
:107EA000102F00270E291F29000F111F8ED06801E7
