:020000040000FA
:100000000C945E000C9486000C9486000C94860080
:100010000C9486000C9486000C9486000C940807BF
:100020000C9486000C9486000C9486000C94860038
:100030000C9486000C9486000C9486000C94860028
:100040000C94BC070C9486000C948A070C946407EB
:100050000C9486000C9486000C9486000C94860008
:100060000C9486000C9486000000000024002700F9
:100070002A0000000008000201000003040700003D
:10008000000000000000010204081020408001026E
:1000900004081020010204081020000000002500C0
:1000A00028002B00040404040404040402020202D5
:1000B00002020303030303030200060811241FBE08
:1000C000CFEFD8E0DEBFCDBF11E0A0E0B1E0EAE5C0
:1000D000F0E402C005900D92A835B107D9F725E0EC
:1000E000A8E5B1E001C01D92AE39B207E1F710E01A
:1000F000CEE5D0E004C02197FE010E94DE1ECD3582
:10010000D107C9F70E94FA080C942B200C94000028
:10011000AF92BF92CF92DF92EF92FF920F931F9315
:10012000CF93DF936C017B018B01040F151FEB0153
:100130005E01AE18BF08C017D10759F06991D6010A
:10014000ED91FC910190F081E02DC6010995892B7C
:1001500079F7C501DF91CF911F910F91FF90EF903B
:10016000DF90CF90BF90AF900895FC01538D448DE8
:10017000252F30E0842F90E0821B930B541710F052
:10018000CF96089501970895FC01918D828D98175F
:1001900061F0A28DAE0FBF2FB11D5D968C91928D37
:1001A0009F5F9F73928F90E008958FEF9FEF089568
:1001B000FC01918D828D981731F0828DE80FF11D31
:1001C000858D90E008958FEF9FEF0895FC01918D4C
:1001D000228D892F90E0805C9F4F821B91098F7345
:1001E000992708958EE791E00E94E60021E0892B8F
:1001F00009F420E0822F089580E090E0892B29F017
:100200000E94F20081110C9400000895FC01A48D5D
:10021000A80FB92FB11DA35ABF4F2C91848D90E028
:1002200001968F739927848FA689B7892C93A0890B
:10023000B1898C91837080648C93938D848D981395
:1002400006C00288F389E02D80818F7D8083089528
:10025000EF92FF920F931F93CF93DF93EC0181E016
:10026000888F9B8D8C8D98131AC0E889F9898081BD
:1002700085FF15C09FB7F894EE89FF896083E889F0
:10028000F98980818370806480839FBF81E090E0E2
:10029000DF91CF911F910F91FF90EF900895F62E6F
:1002A0000B8D10E00F5F1F4F0F731127E02E8C8D09
:1002B0008E110CC00FB607FCFACFE889F98980814E
:1002C00085FFF5CFCE010E940601F1CFEB8DEC0F3B
:1002D000FD2FF11DE35AFF4FF0829FB7F8940B8F6B
:1002E000EA89FB8980818062CFCFCF93DF93EC01D5
:1002F000888D8823B9F0AA89BB89E889F9898C910E
:1003000085FD03C0808186FD0DC00FB607FCF7CFC9
:100310008C9185FFF2CF808185FFEDCFCE010E94C9
:100320000601E9CFDF91CF91089590E0FC01EE58EE
:10033000FF4F2491FC01EA57FF4F3491FC01EC552B
:10034000FF4FE491EE23C9F0222339F0233001F16D
:10035000A8F4213019F1223029F1F0E0EE0FFF1F4F
:10036000E656FF4FA591B4918FB7F894EC916111C7
:1003700026C030953E233C938FBF08952730A9F0C7
:100380002830C9F0243049F7809180008F7D03C068
:10039000809180008F7780938000DFCF84B58F7746
:1003A00084BDDBCF84B58F7DFBCF8091B0008F778C
:1003B0008093B000D2CF8091B0008F7DF9CF3E2BDB
:1003C000DACF9091120189130BC0E8EBF0E0E491D1
:1003D0009FEF90931201E13049F028F0E23061F094
:1003E00060E00C94950110926E00FACF90916F002E
:1003F0009D7F90936F00F4CF909170009D7F9093BC
:10040000700091E09093B0009091B100987F94605B
:100410009093B1001092B300E3CFCF93DF9390E0BD
:10042000FC01EA57FF4F24918C559F4FFC018491AA
:100430008823D1F090E0880F991FFC01E859FF4F05
:10044000A591B491FC01E656FF4FC591D49162305D
:1004500071F49FB7F8943C91822F809583238C93FD
:10046000E8812E2B28839FBFDF91CF9108958FB70E
:10047000F894EC912E2B2C938FBFF6CF8E50806486
:1004800080937C0080917A00806480937A008091D0
:100490007A0086FDFCCF80917800909179000895D4
:1004A000089590E080E0089583E10E943E029C015F
:1004B000220F331F820F931F97FF02C081509C4F62
:1004C000892F85958595089582E10E943E029C01C1
:1004D000220F331F820F931F97FF02C081509C4F42
:1004E000892F859585950895682F8EE791E00C9466
:1004F0002801EF92FF920F931F93CF93DF938C010C
:10050000EB017A010E947402812F0E94740288819B
:100510000E94740289810E9474028A810E9474027E
:10052000E7010E0D1F1DC017D10721F089910E9410
:100530007402F9CFDF91CF911F910F91FF90EF904F
:10054000089550E040E0BC0190E080E00C94790216
:10055000CF93DF93EC0183E090E00E94061FE881D7
:10056000AFEFAE0FAC0FBD2FB11D11962C91DC017A
:1005700012962C93AEEFAE0FAC0FBD2FB11D11969E
:100580002C91DC0111962C931197E350E883EC0F2A
:10059000FD2FF11D21812C93DF91CF9108957F9242
:1005A0008F929F92AF92BF92CF92DF92EF92FF9283
:1005B0000F931F93CF93DF9300D000D000D01F92F2
:1005C000CDB7DEB78EE791E00E94E6000597D0F345
:1005D0008EE791E00E94C400E82E8EE791E00E9431
:1005E000C400F82E8EE791E00E94C400782E8EE7BA
:1005F00091E00E94C400A82E8EE791E00E94C40002
:10060000B82E8701C8010E94061F7C016C014801B9
:10061000880E991E8C149D0471F08EE791E00E9463
:10062000E600892BD1F38EE791E00E94C400F60129
:1006300081936F01EFCF1A830983FF82EE82202F0F
:100640003A817E2D472D5A2D6B2D8F8190E0279674
:100650000FB6F894DEBF0FBECDBFDF91CF911F91D3
:100660000F91FF90EF90DF90CF90BF90AF909F9051
:100670008F907F900895CF93DF93EC0160E08E819F
:100680000E94950161E08E810E94950160E08E815B
:100690000E9495018BE891E00197F1F7DF91CF91EE
:1006A0000895CF92DF92EF92FF920F931F93CF9313
:1006B000DF936C017C0187E0E80EF11CD0E0C0E024
:1006C000062F10E0B8010C2E02C0759567950A94AC
:1006D000E2F76170F70181917F010E9495012196F7
:1006E000C430D10579F7C601DF91CF911F910F91E9
:1006F000FF90EF90DF90CF900C943B03CF92DF926E
:10070000EF92FF920F931F93CF93DF93EC01F62E9E
:10071000642F8C810E9495018D818F3F19F060E0DC
:100720000E9495010F2D10E08F8584FF25C06E017A
:1007300087E0C80ED11CF12CE12CB8010E2C02C0B0
:10074000759567950A94E2F76170F60181916F01E2
:100750000E949501FFEFEF1AFF0A88E0E816F10406
:1007600061F7CE01DF91CF911F910F91FF90EF9034
:10077000DF90CF900C943B03B80184E075956795AA
:100780008A95E1F7CE010E9451036F2DCE01DF91D2
:10079000CF911F910F91FF90EF90DF90CF900C942D
:1007A000510340E0682F82E895E00C947E0381E0DD
:1007B0000E94D1038BE39FE10197F1F70895CF9356
:1007C000DF93613029F090919105986090939105A5
:1007D000609395051092960590E490939705809309
:1007E0009805805C8093990561E0809186050E9460
:1007F0000D02809187058F3F19F061E00E940D0284
:1008000061E0809188050E940D02C2E8D5E09E015A
:10081000225835408091910584FD0BC084E090E022
:1008200021962817390744F461E08E810E940D0259
:10083000EECF88E090E0F4CF8BE39DE00197F1F7F5
:1008400060E0809186050E94950160E080918805B6
:100850000E949501809187058F3F19F060E00E940A
:1008600095018091910584FD34C063E082E895E0B4
:100870000E945103CBE4D6E4CE010197F1F763E087
:1008800082E895E00E9451032197F1F763E082E846
:1008900095E00E94510383E592E00197F1F762E051
:1008A00082E895E00E9451038091910580620E9448
:1008B000D10384E0809392058CE00E94D1030E94D2
:1008C000D70382E08093930586E0DF91CF910C946B
:1008D000D10380620E94D1038BE496E40197F1F783
:1008E0008091910580620E94D10383E592E0019797
:1008F000F1F78091910580620E94D103D5CF41E04C
:100900000E947E0381E090E00895EF92FF920F93A2
:100910001F93CF93DF938C010E94D703E801F12C42
:10092000E0919505FE1628F1E150F0E0EE57FA4F00
:10093000848980680E94D1038E01EE24E394F8013B
:1009400061918F01862F8F7DB1F082E895E00E9442
:100950007F04E394F5E1EF12F2CFF394649684E020
:10096000F812DECFDF91CF911F910F91FF90EF90A2
:100970000895EF2DDACFE0919505FE1650F0E15085
:10098000F0E0EE57FA4F84898E0D80680E94D10303
:10099000E0CFEF2DF5CF61E082E00E940D02E4E7A9
:1009A000F0E0E491E33079F148F4E130C9F0E2306D
:1009B00021F160E082E00E94950117C0E73079F1F3
:1009C000E830B1F1E430A9F7809180008062809333
:1009D00080008FEF9FEF90938B0080938A0005C07B
:1009E00084B5806884BD8FEF87BD61E082E00E949E
:1009F0000D0261E082E00C94950184B5806284BDB3
:100A00008FEF88BDF2CF8091800080688093800056
:100A10008FEF9FEF9093890080938800E6CF8091BD
:100A2000B00080688093B0008FEF8093B300DDCF7B
:100A30008091B00080628093B0008FEF8093B4000B
:100A4000D4CFCF93DF9300D000D000D01F92CDB78A
:100A5000DEB78091310184130AC090913201951361
:100A600006C090913301961302C00E94CB0480E02F
:100A700091E00E94A102FFCFEF92FF920F931F938C
:100A8000CF93DF9300D000D000D01F92CDB7DEB758
:100A900061506A3108F063C0DC01E62FF0E0ED5AE6
:100AA000FA4F0C94DE1E06076D0588059805B10502
:100AB000C905E205EA05F30530066A0678067E06F2
:100AC00085069306A40606070607CD06D106D806B6
:100AD000DB06DE06EA06F806FF06AF5FBE4F8D9125
:100AE0009C91FC01E75AFE4FE081E80FF92FF11DC0
:100AF000108D1170812F27960FB6F894DEBF0FBEB0
:100B0000CDBFDF91CF911F910F91FF90EF9008958E
:100B1000AF5FBE4F8D919C91FC01E75AFE4FE08183
:100B2000E80FF92FF11D108D111F1127111FE2CFB2
:100B3000AF5FBE4F8D919C91FC01E75AFE4FE08163
:100B4000E80FF92FF11DDC01A65ABE4F2C91820F40
:100B5000911D11E0208DFC01808D821758F210E06C
:100B6000C9CFAF5FBE4F8D919C91FC01E75AFE4FFC
:100B7000E081E80FF92FF11DDC01A65ABE4F2C9140
:100B8000820F911D11E0208DFC01808D2813E7CF8D
:100B9000B1CFAF5FBE4F8D919C91FC01E75AFE4FE4
:100BA000E081E80FF92FF11DDC01A65ABE4F2C9110
:100BB000820F911D11E0208DFC01808D281708F413
:100BC00099CFCDCFAF5FBE4FED91FC91EF58FE4F67
:100BD000108190CFAF5FBE4FED91FC910190F081FD
:100BE000E02D128187CFAF5FBE4FED91FC91E68083
:100BF000F78082E090E00E94061F8C01F70182815D
:100C0000F8018083F7018381F8018183A80163E003
:100C100071E082E090E00E947902C8010E94A21F68
:100C20000E94CF0229833A834B835C836D837E834A
:100C30008F8380910301841344C080910401851344
:100C400040C08091050186133CC08E819F8111E0D8
:100C5000FC012081213009F010E00E94A21F4ACF40
:100C6000AF5FBE4FED91FC91E680F78082E090E0AF
:100C70000E94061F8C01F7018281F8018083F70131
:100C80008381F8018183A80166E071E082E090E051
:100C90000E947902C8010E94A21F0E94CF022983EC
:100CA0003A834B835C836D837E838F8380910601BF
:100CB000841307C080910701851303C08091080148
:100CC000C2CF29813A814B815C816D817E818F8188
:100CD0000E942105AF5FBE4FED91FC910488F5891C
:100CE000E02DEF56FF4F11E08081811103CF37CF08
:100CF00011E08C91882309F4FDCE31CFAF5FBE4F58
:100D0000ED91FC91E85AFE4F63CFAF5FBE4F8D91DE
:100D10009C91FC01E75AFE4FE081E80FF92FF11D8D
:100D200011E0808DE7CFAF5FBE4FED91FC918489DC
:100D30009589FC01EE56FF4FE081EF70E80FF92F27
:100D4000F11DE058FF4F44CFAF5FBE4FED91FC91D6
:100D500084899589FC01E058FF4F10811111CACE9A
:100D6000319610811111C6CE319610811111C2CE6B
:100D7000319610811111BECE319610811111BACE6B
:100D8000319610811111B6CE3196108189579F4F3F
:100D9000FC01112309F41CCFADCE0E94640211E0C6
:100DA000A9CF0E94640211E0823009F0D8CEA2CE11
:100DB0000E945402F8CF0E945402F1CF0E946402B4
:100DC000813009F0CCCE0E94540211E0813009F04C
:100DD000C6CE90CEAF5FBE4FED91FC910280F38105
:100DE000E02D11E081859285892B09F083CEB7CE65
:100DF000AF5FBE4FED91FC91E459FE4FE9CEAF5F7E
:100E0000BE4FED91FC91E359FE4FE2CE11E072CE60
:100E10001F920F920FB60F9211242F933F934F936F
:100E20005F936F937F938F939F93AF93BF93EF9352
:100E3000FF938091620190916301A0916401B09150
:100E40006501892B8A2B8B2BD1F190915D01E0916B
:100E50005E01F0915F01808189278083809162012A
:100E600090916301A0916401B09165011816190673
:100E70001A061B069CF48091620190916301A09177
:100E80006401B09165010197A109B10980936201E4
:100E900090936301A0936401B0936501FF91EF917A
:100EA000BF91AF919F918F917F916F915F914F9182
:100EB0003F912F910F900FBE0F901F90189580912A
:100EC00012010E94E101EACF1F920F920FB60F921A
:100ED00011242F933F934F935F936F937F938F933F
:100EE0009F93AF93BF93EF93FF938EE791E00E94A0
:100EF0000601FF91EF91BF91AF919F918F917F91EB
:100F00006F915F914F913F912F910F900FBE0F9076
:100F10001F9018951F920F920FB60F9211242F93C6
:100F20008F939F93EF93FF93E0918E01F0918F0148
:100F30008081E0919401F091950182FD1BC0908128
:100F4000809197018F5F8F7320919801821741F0F4
:100F5000E0919701F0E0E258FE4F958F8093970162
:100F6000FF91EF919F918F912F910F900FBE0F9056
:100F70001F9018958081F4CF1F920F920FB60F9299
:100F800011242F933F938F939F93AF93BF9380919F
:100F90006E0190916F01A0917001B091710130913B
:100FA0005C0123E0230F2D3758F50196A11DB11DDB
:100FB00020935C0180936E0190936F01A093700168
:100FC000B09371018091580190915901A0915A01FB
:100FD000B0915B010196A11DB11D809358019093C2
:100FE0005901A0935A01B0935B01BF91AF919F91BA
:100FF0008F913F912F910F900FBE0F901F901895DA
:1010000026E8230F0296A11DB11DD2CFCF93DF9307
:10101000109281011092800188EE93E0A0E0B0E090
:101020008093820190938301A0938401B093850102
:101030008EE391E090937F0180937E0185EC90E0B8
:1010400090938B0180938A0184EC90E090938D01C2
:1010500080938C0180EC90E090938F0180938E01BF
:1010600081EC90E0909391018093900182EC90E06C
:10107000909393018093920186EC90E09093950178
:101080008093940110929701109298011092990107
:1010900010929A01109285051092840580E591E0E6
:1010A00090938305809382058CE0809386058FEF73
:1010B000809387058DE0809388058EE08093890575
:1010C0008FE080938A0580E180938B0581E1809396
:1010D0008C0510928D0510928E0510928F0510923E
:1010E00090051092910561E080E10E94DF03E5E147
:1010F000F4E08AE0DF011D928A95E9F7E5E6F4E085
:1011000011821082138212823496B5E0E536FB0715
:10111000B9F7CDE0D4E01092650510926605109203
:101120006705109268051092690510926A05109281
:101130006C0510926B0510926D0510926E05109261
:101140006F05109270051092710510927205109241
:101150007305109274051092750510927605109221
:101160007705109278051092790510927A0581E042
:1011700090E090937C0580937B0510927D05109202
:101180007E0510927F05109280051092810581E303
:1011900091E00E94A10210920C04D0930B04C09322
:1011A0000A04D0930904C093080483E093E0909369
:1011B000020380930103D0930403C093030380E5EB
:1011C000EEEAF2E0DF011D928A95E9F71092FE0245
:1011D0001092FF0210920003EBE1F2E01082118204
:1011E0003296B2E0EB39FB07C9F71092AB02DF9100
:1011F000CF910895CF93DF93CDB7DEB761970FB648
:10120000F894DEBF0FBECDBF789484B5826084BDF4
:1012100084B5816084BD85B5826085BD85B58160FA
:1012200085BD80916E00816080936E001092810078
:101230008091810082608093810080918100816033
:1012400080938100809180008160809380008091F4
:10125000B10084608093B1008091B0008160809380
:10126000B00080917A00846080937A0080917A0047
:10127000826080937A0080917A00816080937A0006
:1012800080917A00806880937A001092C100E0918A
:101290008E01F0918F0182E08083E0918A01F091CC
:1012A0008B011082E0918C01F0918D0180E18083AF
:1012B00010929601E0919201F091930186E0808373
:1012C000E0919001F0919101808180618083E091B3
:1012D0009001F0919101808188608083E09190017C
:1012E000F0919101808180688083E0919001F0917C
:1012F000910180818F7D808364E084E10E94DF031F
:101300000E94D70362E088E00E940D0262E089E05B
:101310000E940D0262E08AE00E940D0262E08BE012
:101320000E940D0262E088E00E940D0262E089E006
:101330000E940D0262E08AE00E940D0262E08BE0F2
:101340000E940D028AE094E090930E0480930D04B5
:1013500087E093E0909312048093110483E791E077
:101360009093100480930F0483E093E0909314040F
:10137000809313048EEA92E09093200480931F04DC
:101380008BE192E0909322048093210482E791E024
:101390009093240480932304E5E2F4E0119224E086
:1013A000E536F207D9F748E4442E48EE542E662479
:1013B0006394712C59E8252E50E0352E2FB7F89400
:1013C00080916E0190916F01A0917001B0917101B7
:1013D0002FBF40916F05509170056091710570911C
:1013E0007205841B950BA60BB70B0B97A105B105D6
:1013F000C8F12FB7F89480916E0190916F01A09180
:101400007001B09171012FBF80936F0590937005AB
:10141000A0937105B0937205E5E6F4E0ADE0B4E0A9
:1014200080819181009751F058962C9158972F5FA9
:1014300058962C935897019791838083828193814A
:10144000009751F058962C915897215058962C930C
:1014500058970197938382833496119645E0E53639
:10146000F407F1F680917D05811145C08091150446
:10147000882309F426C1E0910103F0910203019051
:10148000F081E02D60911604848195810E943C05D5
:10149000882309F416C1E0911104F09112042091FF
:1014A0006B0590916C058081DF01A80FB11D11962D
:1014B0002C93A1E0A80FAE0FBF2FB11D11969C93E6
:1014C000A2E0A80FAE0FBF2FB11D11961C928D5F29
:1014D00080838091180490E0982F8827209117042A
:1014E000820F911D90936C0580936B0580917D0513
:1014F0008F5F80937D05E0910F04F091100481854A
:101500009285892B09F418C1809179058083C09058
:101510000F04D090100400916B0510916C05198B8D
:10152000088BD6018C91811109C184E090E00E9462
:10153000061F8C018889F8018083898981838A89C3
:1015400082838B898383A8016EE271E084E090E05E
:101550000E947902C8010E94A21F0E94CF02298323
:101560003A834B835C836D837E838F8380912E01CE
:1015700084130C942D1E80912F0185130C942D1E25
:101580008091300186130C942D1EEE81FF818081A5
:1015900088878181898782818A8783818B87CF0130
:1015A0000E94A21F9B840A851985E885E150E238D4
:1015B00008F009C1F0E0E152F54F0C94DE1ED70BA4
:1015C000E10BE40BF10BFD0B340C400C4C0C580CF4
:1015D000640C740C810C8D0CC40CD00CDC0CE80C6D
:1015E000F40C040D100D1C0D280D380D5B0D770D3E
:1015F0008B0DAE0DCA0DDF0D620EDA0EEA0E020F74
:101600001B0F280F340F860F980FAA0FBC0FD20F95
:10161000ED0F0810241063109F10DF100D113C1106
:101620005F118211A911D011F7111F1247126F1209
:101630007E12A112AE12BA12DB1214135C137D13C8
:10164000C413EA13F71304141114241437144A149E
:1016500071148D14A914BF14D514051518152A1565
:10166000421554156C157D15C315E11506161E1689
:101670003616591692169D169D16A816CA16EC1601
:101680000C171917541765177717AB170118571848
:101690009418E918F8185719B019CA19E419F1196A
:1016A000041A161A291A3C1A321C401C7A1CA61C51
:1016B000C11CD01CEB1C091D291D431D5D1D741D83
:1016C0008D1D80911A04882309F415CFE091010340
:1016D000F09102030190F081E02D60911B04848160
:1016E00095810E943C05882309F405CFE0911104FF
:1016F000F091120420916B0590916C058081DF01BF
:10170000A80FB11D11962C93A1E0A80FAE0FBF2F0B
:10171000B11D11969C93A2E0A80FAE0FBF2FB11D73
:1017200011961C928D5F808380911D0490E0982F0C
:10173000882720911C04D4CE1082E9CE84E090E06A
:101740000E94061FFC01D60119968D919C9198016B
:101750003170DC01A20FB31F2D3F3140C8F02C9136
:101760002083D8011196B170A80FB91F2C91218345
:10177000D8011296B170A80FB91F2C9122830D5F6A
:101780001F4F1170080F191FD8018C918383FFCE52
:10179000BD01CF019F012C5F3F4FDB014D91BD018A
:1017A000DC014D93CD01A217B307B9F7F0CE8091BC
:1017B0006B0590916C05019690936C0580936B0579
:1017C000FDCD0E94CB04FFCFB1E0B0931504809112
:1017D0006B0590916C05019690936C0580936B0559
:1017E000EDCD1092150480916B0590916C050196DA
:1017F00090936C0580936B05E1CD20916B05309142
:101800006C052F5F3F4F30936C0520936B05E09183
:101810001104F09112048081DF01A80FB11D11960F
:101820002C93A1E0A80FAE0FBF2FB11D11963C93D2
:10183000A2E0A80FAE0FBF2FB11D11961C928D5FB5
:1018400080838091180490E0982F882720911704B6
:10185000820F911D90936C0580936B0580917D059F
:101860008F5F80937D05AACD1093160480916B0540
:1018700090916C05029690936C0580936B059ECDBC
:101880001093170480916B0590916C0502969093CC
:101890006C0580936B0592CD1093180480916B05B5
:1018A00090916C05029690936C0580936B0586CDA4
:1018B0001093190480916B0590916C05029690939A
:1018C0006C0580936B057ACD109317040093180470
:1018D0009092190480916B0590916C0504969093F9
:1018E0006C0580936B056ACDE1E0E0931A0480916A
:1018F0006B0590916C05019690936C0580936B0538
:101900005DCD10921A0480916B0590916C05019643
:1019100090936C0580936B0551CD20916B053091B0
:101920006C052F5F3F4F30936C0520936B05E09162
:101930001104F09112048081DF01A80FB11D1196EE
:101940002C93A1E0A80FAE0FBF2FB11D11963C93B1
:10195000A2E0A80FAE0FBF2FB11D11961C928D5F94
:10196000808380911D0490E0982F882720911C048B
:10197000820F911D90936C0580936B0580917D057E
:101980008F5F80937D051ACD10931B0480916B05AA
:1019900090916C05029690936C0580936B050ECD2B
:1019A00010931C0480916B0590916C0502969093A6
:1019B0006C0580936B0502CD10931D0480916B051F
:1019C00090916C05029690936C0580936B05F6CC14
:1019D00010931E0480916B0590916C050296909374
:1019E0006C0580936B05EACC10931C0400931D04D6
:1019F00090921E0480916B0590916C0504969093D3
:101A00006C0580936B05DACC10937F0580916B0594
:101A100090916C05029690936C0580936B05CECCEB
:101A20001093800580916B0590916C0502969093C0
:101A30006C0580936B05C2CC1093810580916B057A
:101A400090916C05029690936C0580936B05B6CCD3
:101A500010937F05009380059092810580916B051E
:101A600090916C05049690936C0580936B05A6CCC1
:101A700080917F058F5F80937F05811119C0F1E010
:101A8000F0937E05809180058F5F809380058111A2
:101A900005C0809181058F5F8093810580916B05E2
:101AA00090916C05019690936C0580936B0586CCA4
:101AB00010927E05F3CF809180058F5F8093800523
:101AC000811112C021E020937E05809181058F5FF6
:101AD0008093810580916B0590916C0501969093A0
:101AE0006C0580936B056ACC10927E05F3CF8091D4
:101AF00081058F5F8093810591E0811190E0909343
:101B00007E0580916B0590916C05019690936C0514
:101B100080936B0553CC80917F05815080937F0526
:101B20008F3FC9F441E040937E058091800581504C
:101B3000809380058F3F29F48091810581508093A7
:101B4000810580916B0590916C05019690936C05D1
:101B500080936B0533CC10927E05F3CF8091800586
:101B60008150809380058F3F91F471E070937E05E2
:101B70008091810581508093810580916B059091C2
:101B80006C05019690936C0580936B0517CC1092B1
:101B90007E05F3CF8091810581508093810591E08E
:101BA0008F3F09F090E090937E0580916B059091B6
:101BB0006C05019690936C0580936B05FFCBE091CB
:101BC0000F04F091100481859285892B09F45EC081
:101BD00080917A0580831F73012F10E0809180052A
:101BE00090E0982F882720917F05820F911D9F8775
:101BF0008E8784E090E00E94061F6C018E85D601DE
:101C00008C938F8511968C931197888912968C935B
:101C10001297898913968C93A6016BE271E084E098
:101C200090E00E947902C6010E94A21F0E94CF028A
:101C300029833A834B835C836D837E838F8380917A
:101C40002B0184130C942D1E80912C0158130C949D
:101C50002D1E80912D0168130C942D1E8E819F8165
:101C6000FC01D0800E94A21FF801E35FFB4FD08EE1
:101C700080916E0581110CC080916B0590916C056F
:101C8000029690936C0580936B0598CB1082A3CF3E
:101C900080917F058F5F80937F05811110C0F1E0F7
:101CA000F0937E05809180058F5F80938005811180
:101CB000E3CF809181058F5F80938105DDCF109206
:101CC0007E05DACFE0910F04F091100481859285B2
:101CD000892B09F462C080917A058083E0910F041A
:101CE000F09110041F73A12FB0E0A35FBB4F589673
:101CF000DC9080918005282F30E0322F22278091C0
:101D00007F05820F932F911D9D878C872081211144
:101D100046C085E090E00E94061F8C018C85D801AA
:101D20008C938D8511968C9311978E8512968C933A
:101D300012978F8513968C9313971496DC92A801B3
:101D400068E271E085E090E00E947902C8010E949B
:101D5000A21F80916E058823B1F080917F058F5F6F
:101D600080937F05811123C0F1E0F0937E0580917F
:101D700080058F5F80938005811105C0809181056A
:101D80008F5F8093810580916B0590916C05029621
:101D900090936C0580936B0511CB10829FCF91704F
:101DA00021853285820F931FFC01D082D2CF109201
:101DB0007E05E9CF1F73E12FF0E0E35FFB4F008F5B
:101DC00080916B0590916C05039690936C058093C0
:101DD0006B05F4CA1F73E12FF0E0E35FFB4F808DCA
:101DE0008F5F808F20916B0530916C052E5F3F4F88
:101DF00030936C0520936B0591E0811190E09093F6
:101E00007E05DCCA1F73E12FF0E0E35FFB4F808D9E
:101E10008150808F20916B0530916C052E5F3F4F74
:101E200030936C0520936B0591E08F3F09F090E0B3
:101E300090937E05C3CA21E020936E0580916B05C7
:101E400090916C05019690936C0580936B05B6CAD2
:101E500010926E0580916B0590916C0501969093A0
:101E60006C0580936B05AACAE0910F04F0911004F1
:101E700081859285892B09F447C080917A058083FA
:101E800085E291E00E94A1020E94CF0229833A8359
:101E90004B835C836D837E838F83809125018413C4
:101EA0000C942D1E8091260185130C942D1E80917B
:101EB000270186130C942D1E8E819F81DC011196C3
:101EC000CC9011970C2C000CDD08DC2CCC242C9130
:101ED000C20ED11C27FDDA940E94A21F1F73E12FAE
:101EE000F0E0E35FFB4FC08E0F73E02FF0E0E35FA5
:101EF000FB4FD08E80916B0590916C05039690936B
:101F00006C0580936B055ACA1082BACF1F73E12FFC
:101F1000F0E0E35FFB4F80917F05808F80916B0540
:101F200090916C05029690936C0580936B0546CA60
:101F30001F73E12FF0E0E35FFB4F80918005808FFE
:101F400080916B0590916C05029690936C0580933F
:101F50006B0534CA1F73E12FF0E0E35FFB4F809104
:101F60008105808F80916B0590916C05029690930E
:101F70006C0580936B0522CA1F73E12FF0E0E35FCD
:101F8000FB4F808D0F73E02FF0E0E35FFB4F808FFE
:101F900080916B0590916C05039690936C058093EE
:101FA0006B050CCA1F73E12FF0E0E35FFB4FE08D80
:101FB000EF73F0E0E35FFB4F808D0F73E02FF0E0F5
:101FC000E35FFB4F808F80916B0590916C050396CA
:101FD00090936C0580936B05F1C91F73E12FF0E0BE
:101FE000E35FFB4F808D8F5F808F20916B05309179
:101FF0006C052E5F3F4F30936C0520936B05E0918D
:102000000D04F0910E0491E0811190E09283D6C905
:102010001F73E12FF0E0E35FFB4F808D8150808FD5
:1020200020916B0530916C052E5F3F4F30936C050E
:1020300020936B05E0910D04F0910E0491E08F3F29
:1020400009F090E09283BAC980916B0590916C057C
:10205000049690936C0580936B051093660500932E
:1020600067051F73E12FF0E0E35FFB4F408D0F73B7
:10207000E02FF0E0E35FFB4F808D480F5527551FA1
:10208000E0910D04F0910E0481E04F3F510509F0FD
:102090000CF480E08283E92DEF73F0E0E35FFB4F07
:1020A0005527952F990F990B9A01492F592F692F71
:1020B000792F892F3F5F4F4F5F4F6F4F7F4F8F4F6C
:1020C0009F4F208F7BC980916B0590916C05049682
:1020D00090936C0580936B051093660500936705DC
:1020E0001F73E12FF0E0E35FFB4F408D0F73E02F94
:1020F000F0E0E35FFB4F808D481B550BE0910D0432
:10210000F0910E04852F881F8827881F8283E92D70
:10211000EF73F0E0E35FFB4F5527952F990F990B75
:102120009A01492F592F692F792F892F3F5F4F4FE0
:102130005F4F6F4F7F4F8F4F9F4F208F3FC98091D1
:102140006B0590916C05049690936C0580936B05DC
:1021500010936605009367051F73A12FB0E0A35F7E
:10216000BB4F0F73E02FF0E0E35FFB4F58964C91AD
:10217000808D489FA0011124E0910D04F0910E0480
:1021800081E04F3F510509F00CF480E08283E92D96
:10219000EF73F0E0E35FFB4F5527952F990F990BF5
:1021A0009A01492F592F692F792F892F3F5F4F4F60
:1021B0005F4F6F4F7F4F8F4F9F4F208FFFC8809192
:1021C0006B0590916C05049690936C0580936B055C
:1021D00010936605009367050F73E02FF0E0E35F4F
:1021E000FB4F908D1F73E12FF0E0E35FFB4F808D7D
:1021F000292D2F7330E0E0910D04F0910E0441E0A1
:10220000911140E04283992319F0692F0E94B31E77
:10221000235F3B4FF901908FD1C880916B0590915E
:102220006C05049690936C0580936B05109366057E
:10223000009367050F73E02FF0E0E35FFB4F608DC5
:102240001F73E12FF0E0E35FFB4F808D292D2F738B
:1022500030E0E0910D04F0910E0491E0611190E006
:102260009283662319F00E94B31E682F235F3B4FB1
:10227000D90158966C93A2C880916B0590916C051A
:10228000039690936C0580936B05109366051F73FE
:10229000E12FF0E0E35FFB4F808DE0910D04F091C2
:1022A0000E0491E0813808F490E092830F73E02FE0
:1022B000F0E0E35FFB4F880F808F0C94DE09809184
:1022C0006B0590916C05039690936C0580936B055C
:1022D000109366051F73E12FF0E0E35FFB4F808DE5
:1022E000E0910D04F0910E04982F917092830F737A
:1022F000E02FF0E0E35FFB4F90E095958795808FAE
:102300000C94DE0980916B0590916C050496909376
:102310006C0580936B0510936605009367050F733A
:10232000E02FF0E0E35FFB4F808D1F73E12FF0E0C3
:10233000E35FFB4F908DE0910D04F0910E0412824B
:10234000E92DEF73F0E0E35FFB4F8923808F0C945E
:10235000DE0980916B0590916C05049690936C0555
:1023600080936B0510936605009367050F73E02F4C
:10237000F0E0E35FFB4F808D1F73E12FF0E0E35F40
:10238000FB4F908DE0910D04F0910E041282E92D27
:10239000EF73F0E0E35FFB4F892B808F0C94DE0935
:1023A00080916B0590916C05049690936C058093D9
:1023B0006B0510936605009367050F73E02FF0E03F
:1023C000E35FFB4F808D1F73E12FF0E0E35FFB4F76
:1023D000908DE0910D04F0910E041282E92DEF73BF
:1023E000F0E0E35FFB4F8927808F0C94DE0980913A
:1023F0006B0590916C05049690936C0580936B052A
:1024000010936605009367050F73E02FF0E0E35F1C
:10241000FB4F808D1F73E12FF0E0E35FFB4F908D4A
:10242000E0910D04F0910E041282E92DEF73F0E0BB
:10243000E35FFB4F89238095808F0C94DE098091A8
:102440006B0590916C05049690936C0580936B05D9
:1024500010936605009367050F73E02FF0E0E35FCC
:10246000FB4F808D1F73E12FF0E0E35FFB4F908DFA
:10247000E0910D04F0910E041282E92DEF73F0E06B
:10248000E35FFB4F892B8095808F0C94DE09809150
:102490006B0590916C05049690936C0580936B0589
:1024A00010936605009367050F73E02FF0E0E35F7C
:1024B000FB4F808D1F73E12FF0E0E35FFB4F908DAA
:1024C000E0910D04F0910E041282E92DEF73F0E01B
:1024D000E35FFB4F89278095808F0C94DE09809104
:1024E0006B0590916C05039690936C0580936B053A
:1024F00010936605009367050C94DE0980916B05C7
:1025000090916C05039690936C0580936B051093E6
:1025100066051F73E12FF0E0E35FFB4F808DE091D4
:102520000D04F0910E04982F917092830F73E02F99
:10253000F0E0E35FFB4F90E095958795808F0C94DA
:10254000DE0910936D0580916B0590916C050296E4
:1025500090936C0580936B050C94DE09802F90E0BE
:10256000982F8827810F911D90936C0580936B05A0
:102570000C94DE0960916D05809111049091120414
:102580000E943C05882361F0802F90E0982F8827D7
:10259000810F911D90936C0580936B050C94DE095F
:1025A00080916B0590916C05049690936C058093D7
:1025B0006B050C94DE0920916B0530916C052C5F46
:1025C0003F4F30936C0520936B05E0911104F0911F
:1025D00012048081DF01A80FB11D11962C93A1E098
:1025E000A80FAE0FBF2FB11D11963C93A2E0A80F0C
:1025F000AE0FBF2FB11D11961C928D5F8083802F6F
:1026000090E0982F8827810F911D90936C058093FF
:102610006B0580917D05882311F40C94DE098F5F92
:1026200080937D050C94DE0980916B0590916C057B
:10263000049690936C0580936B0560916D05809175
:102640001104909112040E943C05882311F40C940B
:10265000DE09E0911104F091120420916B05909134
:102660006C058081DF01A80FB11D11962C93A1E0AC
:10267000A80FAE0FBF2FB11D11969C93A2E0A80F1B
:10268000AE0FBF2FB11D11961C928D5F8083802FDE
:1026900090E0982F8827810F911D90936C0580936F
:1026A0006B0580917D05882311F40C94DE098F5F02
:1026B00080937D050C94DE0960916D058091110475
:1026C000909112040E943C0581110CC0802F90E073
:1026D000982F8827810F911D90936C0580936B052F
:1026E0000C94DE0980916B0590916C050496909393
:1026F0006C0580936B050C94DE0980916B059091BD
:102700006C05049690936C0580936B0560916D0544
:1027100080911104909112040E943C0581110C9447
:10272000DE09E0911104F091120420916B05909163
:102730006C058081DF01A80FB11D11962C93A1E0DB
:10274000A80FAE0FBF2FB11D11969C93A2E0A80F4A
:10275000AE0FBF2FB11D11961C928D5F8083802F0D
:1027600090E0982F8827810F911D90936C0580939E
:102770006B0580917D05882311F40C94DE098F5F31
:1027800080937D050C94DE098FEF8093680580931C
:10279000690580936A0580911104909112040E944A
:1027A000A802FC01218130E0322F22274081240F32
:1027B000311D30936C0520936B050E94A21F809100
:1027C0007D05882311F40C94DE09815080937D05EA
:1027D0000C94DE091093680580916B0590916C054F
:1027E000029690936C0580936B050C94DE09109310
:1027F000690580916B0590916C05029690936C052C
:1028000080936B050C94DE0910936A0580916B052B
:1028100090916C05029690936C0580936B050C94D7
:10282000DE091F73E12FF0E0E35FFB4F8091680545
:10283000808F80916B0590916C05029690936C054A
:1028400080936B050C94DE091F73E12FF0E0E35FCA
:10285000FB4F80916905808F80916B0590916C058D
:10286000029690936C0580936B050C94DE091F73A0
:10287000E12FF0E0E35FFB4F80916A05808F80914C
:102880006B0590916C05029690936C0580936B0597
:102890000C94DE09109368050093690590926A050F
:1028A00080911104909112040E94A802DC011196FB
:1028B0002C91119730E0322F22274C91240F311D9B
:1028C00030936C0520936B050E94A21F80917D05BB
:1028D000882311F40C94DE09815080937D050C94BB
:1028E000DE09A0911104B09112041F73E12FF0E0F2
:1028F000E35FFB4F908D8C91FD01E80FF11D9183FB
:102900008F5F8C9380916B0590916C0502969093EC
:102910006C0580936B050C94DE09A0911104B091B5
:102920001204EC91E150EC93EA0FFB2FF11D818131
:102930001F73E12FF0E0E35FFB4F808F80916B0509
:1029400090916C05029690936C0580936B050C94A6
:10295000DE09A0911104B09112041F73E12FF0E081
:10296000E35FFB4F808D8C9380916B0590916C059C
:10297000029690936C0580936B050C94DE09E091B0
:102980001104F091120480811F73E12FF0E0E35FE6
:10299000FB4F808F80916B0590916C050296909310
:1029A0006C0580936B050C94DE09E0912104F09195
:1029B000220420818181DF01AF56BF4F9C9191504D
:1029C0009C93AF0142585F4F628173816193719311
:1029D000E417F507C9F71F73E12FF0E0E35FFB4F42
:1029E000208F0F73E02FF0E0E35FFB4F8795882780
:1029F0008795808F80916B0590916C0503969093DD
:102A00006C0580936B050C94DE09E0912104F09134
:102A10002204E057FF4FB1E0B08380916B059091A5
:102A20006C05019690936C0580936B050C94DE0900
:102A3000E0912104F0912204E057FF4F1082809131
:102A40006B0590916C05019690936C0580936B05D6
:102A50000C94DE09A0912104B0912204AE56BF4F20
:102A60001F73E12FF0E0E35FFB4F808D8C9380912B
:102A70006B0590916C05039690936C0580936B05A4
:102A80000C94DE09E0912104F0912204EF56FF4FEF
:102A9000108280916B0590916C05019690936C0566
:102AA00080936B050C94DE0990E080E0E0911F04B8
:102AB000F0912004E80FF91F1082019680359105EE
:102AC000A9F780916B0590916C05019690936C0528
:102AD00080936B050C94DE0980911F049091200473
:102AE0000E94850480916B0590916C0501969093EE
:102AF0006C0580936B050C94DE0920911F043091C6
:102B000020041F73E12FF0E0E35FFB4F608DD901DC
:102B1000A05BBF4F5C9189010F5A1F4FF8014081A4
:102B2000852F90E0F4E14F9F800D911D1124880FB7
:102B3000991F880F991F843471E0970744F4969584
:102B4000879596958795820F931FFC0160832E5A77
:102B50003F4FF9018081882359F05F5F5C935431C6
:102B600039F41C924F5FD8014C93443009F41C9205
:102B700080916B0590916C05029690936C05809303
:102B80006B050C94DE0990E080E01F73E12FF0E00C
:102B9000EB5DFB4FA0911F04B09120042081A80F92
:102BA000B91F2C93019680359105A1F780916B0593
:102BB00090916C05029690936C0580936B050C9434
:102BC000DE0930E020E080911F0490912004203540
:102BD000310539F0820F931FFC0110822F5F3F4FA8
:102BE000F2CFFC01E05BFF4F1082319610823196EC
:102BF00010820E94850480916B0590916C0501966E
:102C000090936C0580936B050C94DE091F73E12F84
:102C1000F0E0E35FFB4F808DE0911F04F091200412
:102C2000E05BFF4F808380916B0590916C0502966D
:102C300090936C0580936B050C94DE091F73E12F54
:102C4000F0E0E35FFB4F808DE0911F04F0912004E2
:102C5000EF5AFF4F808380916B0590916C0502962F
:102C600090936C0580936B050C94DE0980911F0492
:102C7000909120041F73E12FF0E0E35FFB4F208D64
:102C8000FC01E05BFF4F20830F73E02FF0E0E35F78
:102C9000FB4F208D8F5A9F4FDC012C9380916B0549
:102CA00090916C05039690936C0580936B050C9442
:102CB000DE0920911F0430912004E92DEF73F0E02C
:102CC000E35FFB4F608D0F73E02FF0E0E35FFB4F9E
:102CD000808D482F50E0542F44271F73E12FF0E0E0
:102CE000E35FFB4F808D840F952F911DAC014370E6
:102CF0005527452B61F48434B1E09B0740F4969549
:102D0000879596958795820F931FFC01608380912C
:102D10006B0590916C05049690936C0580936B0500
:102D20000C94DE0980916B0590916C05039690934D
:102D30006C0580936B050C94DE0980916B05909176
:102D40006C05029690936C0580936B050C94DE09DC
:102D50001F7324E0129FF0011124EB59FB4F0F73F6
:102D6000A02FB0E0A35FBB4F58968C91208131819A
:102D70002F5F3F4F820F932F911D9183808380910E
:102D80006B0590916C05039690936C0580936B0591
:102D90000C94DE091F7344E0149FF0011124E959DB
:102DA000FB4F0F73A02FB0E0A35FBB4F58968C91E1
:102DB000208131812F5F3F4F820F932F911D91838F
:102DC000808380916B0590916C05039690936C05C0
:102DD00080936B050C94DE091F73012F10E0F8013E
:102DE000EE0FFF1FEE0FFF1FEB59FB4F11821082FA
:102DF000000F111F000F111FF801E959FB4F11823D
:102E0000108280916B0590916C05029690936C05F1
:102E100080936B050C94DE091092650580916B051B
:102E200090916C05019690936C0580936B050C94C2
:102E3000DE0940911F04509120040F73E02FF0E051
:102E4000E35FFB4F808D282F30E0322F22271F7346
:102E5000E12FF0E0E35FFB4F808D820F932F911DF8
:102E6000E92DEF73F0E09C0123703327232BD1F47D
:102E7000843471E09707B0F4969587959695879579
:102E8000840F951FDC018C91E35FFB4F808F809155
:102E90006B0590916C05049690936C0580936B057F
:102EA0000C94DE0980E0F0CF1F73E12FF0E0E35FC8
:102EB000FB4F108E80916B0590916C05029690935C
:102EC0006C0580936B050C94DE091F73E12FF0E015
:102ED000E35FFB4FB1E0B08F80916B0590916C0583
:102EE000029690936C0580936B050C94DE09A0917B
:102EF0001304B09114041F73E12FF0E0E35FFB4F64
:102F0000808D90E013969C938E931297C09013043B
:102F1000D090140482E090E00E94061F8C01F6011C
:102F20008281D8018C93838111968C93A80162E2EF
:102F300071E082E090E00E947902C8010E94A21F25
:102F400080916B0590916C05029690936C0580932F
:102F50006B050C94DE09A0911304B09114041F7347
:102F6000E12FF0E0E35FFB4F808D90E013969C93A0
:102F70008E931297A0901304B09014040F7310E076
:102F800082E090E00E94061F6C01F5018281D6016B
:102F90008C93838111968C93A6016FE171E082E09E
:102FA00090E00E947902C6010E94A21F0E94CF02F7
:102FB00029833A834B835C836D837E838F838091E7
:102FC0001F0184134AC680912001851346C6809153
:102FD0002101861342C68E819F81FC01D0800E9410
:102FE000A21F035F1B4FD8015896DC9280916B059E
:102FF00090916C05039690936C0580936B050C94EF
:10300000DE09A0911304B09114041F73E12FF0E0C6
:10301000E35FFB4F808D90E013969C938E93129705
:10302000A0901304B09014040F7310E082E090E0BD
:103030000E94061F6C01F5018281D6018C93838169
:1030400011968C93A60162E271E082E090E00E940A
:103050007902C6010E94A21F0E94CF0229833A83EF
:103060004B835C836D837E838F83809122018413E5
:10307000F4C5809123018513F0C580912401861346
:10308000ECC58E819F81FC01D0800E94A21F035F4E
:103090001B4FD8015896DC9280916B0590916C057E
:1030A000039690936C0580936B050C94DE09A091B8
:1030B0001304B09114041F73E12FF0E0E35FFB4FA2
:1030C000808D90E013969C938E931297C09013047A
:1030D000D09014040F73E02FF0E0E35FFB4FB08C4F
:1030E00083E090E00E94061F8C01F6018281D801E6
:1030F0008C93838111968C9311971296BC92A801A0
:1031000062E271E083E090E00E947902C8010E94CF
:10311000A21F80916B0590916C05039690936C05AE
:1031200080936B050C94DE09A0911304B0911404F4
:103130001F73E12FF0E0E35FFB4F808D90E013966B
:103140009C938E931297A0901304B09014040F7365
:1031500010E082E090E00E94061F6C01F501828180
:10316000D6018C93838111968C93A6016CE171E05A
:1031700082E090E00E947902C6010E94A21F0E9494
:10318000CF0229833A834B835C836D837E838F8355
:1031900080911C01841361C580911D0185135DC55B
:1031A00080911E01861359C58E819F81FC01D080BC
:1031B0000E94A21FF801E35FFB4FD08E80916B0548
:1031C00090916C05039690936C0580936B050C941D
:1031D000DE0989E191E00E94A10280916B05909146
:1031E0006C05019690936C0580936B050C94DE0939
:1031F000A0911304B09114041F73E12FF0E0E35F7A
:10320000FB4F808D90E013969C938E931297A09025
:103210001304B090140482E090E00E94061F6C0139
:10322000D50112968C911297F601808313968C919A
:103230008183A60166E171E082E090E00E9479025C
:10324000C6010E94A21F0E94CF0229833A834B83AA
:103250005C836D837E838F83809116018413FDC40C
:10326000809117018513F9C4809118018613F5C464
:103270008E819F81DC01DC9011961C910E94A21F1F
:103280000F73E02FF0E0E35FFB4FD08EE92DEF737B
:10329000F0E0E35FFB4F108F80916B0590916C0520
:1032A000049690936C0580936B050C94DE09A091B5
:1032B0001304B09114041F73E12FF0E0E35FFB4FA0
:1032C000808D90E013969C938E931297A090130498
:1032D000B090140482E090E00E94061F6C01F5019A
:1032E0008281D6018C93838111968C93A60163E130
:1032F00071E082E090E00E947902C6010E94A21F64
:103300000E94CF0229833A834B835C836D837E8343
:103310008F83809113018413A0C4809114018513BD
:103320009CC480911501861398C48E819F8111E001
:10333000FC012081213009F010E00E94A21F0F73D0
:10334000E02FF0E0E35FFB4F108F80916B059091D1
:103350006C05039690936C0580936B050C94DE09C5
:10336000A0911304B09114041F73E12FF0E0E35F08
:10337000FB4F808D90E013969C938E9312978091D3
:103380006B0590916C05029690936C0580936B058C
:103390000C94DE09F1E0F0937705812F90E001961F
:1033A00010E0102F0027080F191F10937C050093C1
:1033B0007B0580916B0590916C05039690936C054D
:1033C00080936B050C94DE091092770580916B0554
:1033D00090916C05019690936C0580936B050C940D
:1033E000DE09E0911F04F0912004EE5AFF4F21E026
:1033F000208380916B0590916C05019690936C05EC
:1034000080936B050C94DE09E0911F04F091200479
:10341000EE5AFF4F108280916B0590916C050196DA
:1034200090936C0580936B050C94DE090E946402F6
:103430001F73E12FF0E0E35FFB4F808F80916B05FE
:1034400090916C05029690936C0580936B050C949B
:10345000DE090E9454021F73E12FF0E0E35FFB4F8F
:10346000808F80916B0590916C05029690936C050E
:1034700080936B050C94DE090F73E02FF0E0E35F9F
:10348000FB4F808C912C982C88241F73E12FF0E047
:10349000E35FFB4F808D880E911C80911201833079
:1034A00081F4E8EBF0E0149117FF3BC080916B05CD
:1034B00090916C05039690936C0580936B050C942A
:1034C000DE098F3F99F783E080931201E8EBF0E08B
:1034D00014911F3F59F3113009F4E3C050F012303A
:1034E00009F4FDC017FDE2CF61E083E00E940D0208
:1034F0001EC014BC15BC84B5826084BD85B58160D6
:1035000085BDE7EAF0E08491E82FF0E0EE0FFF1FC1
:10351000E656FF4F85919491F1018491809361016A
:1035200010E061E083E00E940D021123B1F064011C
:10353000092C000CEE08FF0860E072E18AE790E0D9
:10354000A70196010E94BF1EBA01A901415051096D
:1035500061097109123009F040C1092C000CAA0858
:10356000BB0860E072E18AE790E0A50194010E9447
:10357000BF1E69017A01BA01A901415051096109CF
:1035800071094F3F51056105710509F00CF40AC13D
:1035900060E472E48FE090E0A50194010E94BF1EF8
:1035A000BA01A9014150510961097109123009F0AC
:1035B000B8C082E04F3F51056105710509F00CF478
:1035C00061C060E970ED83E090E0A50194010E9484
:1035D000BF1EBA01A901415051096109710983E077
:1035E0004F3F51056105710509F00CF44BC0C30153
:1035F000B201A50194010E94BF1EBA01A901415068
:1036000051096109710984E04F3F51056105710558
:10361000C9F1C4F164E274EF80E090E0A501940187
:103620000E94BF1EBA01A9014150510961097109E7
:1036300085E04F3F51056105710521F118F162E107
:103640007AE780E090E0A50194010E94BF1EBA01D4
:10365000A901415051096109710986E04F3F5105A7
:103660006105710579F070F0B701A6018AE07595E2
:103670006795579547958A95D1F74150510961094A
:10368000710987E09091B100987F892B8093B100F8
:10369000113009F4BFC0123009F4D1C0111106CFA6
:1036A00088C0109280001092810080918100886013
:1036B0008093810080918100816080938100E7EA9E
:1036C000F0E08491E82FF0E0EE0FFF1FE656FF4F89
:1036D00085919491F10184918093600122CF1092A1
:1036E000B0001092B1008091B00082608093B00071
:1036F0008091B10081608093B100E7EAF0E08491AD
:10370000E82FF0E0EE0FFF1FE656FF4F85919491F2
:1037100090935F0180935E01F101849180935D013C
:1037200000CF4F3F51056105710509F00CF453C0FE
:10373000C301B201A50194010E94BF1EBA01A901F3
:10374000415051096109710984E0111172CF83E080
:103750004F3F51056105710541F13CF162E17AE7A6
:1037600080E090E0A50194010E94BF1EBA01A9016A
:10377000415051096109710984E04F3F51056105CC
:10378000710599F090F0B701A6019AE075956795DB
:10379000579547959A95D1F741505109610971099B
:1037A00085E003C081E011116DCF95B5987F892B1D
:1037B00085BD47BD8FEF9FEFDC0180936A01909339
:1037C0006B01A0936C01B0936D0180916E008260DB
:1037D00080936E006BCE82E0E6CF91E041155105FB
:1037E000F1E06F0771056CF0C301B201A70196010A
:1037F0000E94BF1EBA01A901415051096109710916
:1038000093E0113009F044CF80918100887F892BAB
:103810008093810050938900409388008FEF9FEF41
:10382000DC018093660190936701A0936801B093D7
:10383000690180916F00826080936F0037CE409362
:10384000B3008FEF9FEFDC018093620190936301DF
:10385000A0936401B09365018091700082608093B1
:10386000700024CE83E00E94E10180916B0590916D
:103870006C05019690936C0580936B050C94DE09A2
:1038800080916B0590916C05049690936C058093E4
:103890006B05E0911104F0911204A92DAF73B0E013
:1038A000A35FBB4F58969C910F73A02FB0E0A35F0E
:1038B000BB4F58962C911F73A12FB0E0A35FBB4F55
:1038C00058963C918081DF01A80FB11D11963C9361
:1038D000A1E0A80FAE0FBF2FB11D11962C93A2E04F
:1038E000A80FAE0FBF2FB11D11969C938D5F8083E3
:1038F0000C94DE0980916B0590916C050496909371
:103900006C0580936B0580911104909112040E94C4
:10391000A802DC012C911F73E12FF0E0E35FFB4F65
:10392000208F11962C9111970F73E02FF0E0E35F39
:10393000FB4F208F12962C91E92DEF73F0E0E35F9F
:10394000FB4F208F0E94A21F0C94DE0980916B0513
:1039500090916C05019690936C0580936B05E091B6
:103960000F04F091100481859285892B11F40C9439
:10397000DE0980917905B1E08B27809378050C945E
:10398000DE0980916B0590916C05019690936C0512
:1039900080936B0580917905809378050C94DE09FE
:1039A00080916B0590916C05019690936C058093C6
:1039B0006B05E0910F04F091100481859285892BAD
:1039C00011F40C94DE0980917A05E1E08E27809352
:1039D0007A050C94DE0980916B0590916C05019637
:1039E00090936C0580936B0500910F041091100467
:1039F000D80119968D919C91892B11F00C94DE09B8
:103A000080E092E00E94061FF801928781870C9463
:103A1000DE0980916B0590916C05019690936C0581
:103A200080936B0500910F0410911004D801199632
:103A30008D919C91009729F00E94A21FF801128697
:103A400011861092790510927A05109278050C94DF
:103A5000DE0980916B0590916C05019690936C0541
:103A600080936B05E0910F04F09110048091800524
:103A700090E0982F882720917F05820F911D9483D5
:103A800083830C94DE0980916B0590916C050196FF
:103A900090936C0580936B05E0910F04F0911004F6
:103AA0008091800590E0982F882720917F05820FD4
:103AB000911D968385830C94DE0980916B0590910E
:103AC0006C05039690936C0580936B05E0910F0451
:103AD000F091100411701283E0910F04F091100422
:103AE000017001830C94DE0980916B0590916C0547
:103AF000049690936C0580936B05E0910F04F09110
:103B00001004812F90E0019610E0102F0027080F7D
:103B1000191F108707830C94DE0980916B05909123
:103B20006C05019690936C0580936B0500910F04D2
:103B300010911004D80119968D919C91892B21F533
:103B400083E090E00E94061F6C01F801838194815C
:103B5000D60111969C938E938581968113969C93A2
:103B60008E9312978781908515969C938E931497C8
:103B7000A6016FE071E08CE090E00E947902C6013E
:103B80000E94A21F0C94DE09F8018181282F30E0E9
:103B9000220F331F8281820F932F911D8230910556
:103BA00009F487C08330910509F4BBC0019721F166
:103BB0008CE090E00E94061F6C01D80113968D9155
:103BC0009C911497F6019183808315968D919C9119
:103BD00016979383828317968D919C919583848306
:103BE000A6016FE071E08CE090E00E947902C601CE
:103BF0000E94A21F0C94DE0988E090E00E94061F3C
:103C00006C01D80113968D919C911497F6019183C4
:103C1000808317968D919C9193838283A6016CE09B
:103C200071E088E090E00E947902C6010E94A21F24
:103C30000E94CF0229833A834B835C836D837E830A
:103C40008F8380910C01841308C080910D0185132E
:103C500004C080910E01681749F029813A814B8197
:103C60005C816D817E818F810E942105D12CC12CC8
:103C7000D80117968D919C91C816D906A0F48EE7AD
:103C800091E00E94C400F801258136812C0D3D1D74
:103C9000317041855285240F351FD9018C93BFEFB8
:103CA000CB1ADB0AE5CF8E819F810E94A21F0C9464
:103CB000DE0988E090E00E94061F6C01F801858112
:103CC0009681D60111969C938E9387819085139649
:103CD0009C938E931297A60169E071E008960E946A
:103CE0007902C6010E94A21FD12CC12CF801878144
:103CF0009085C816D90610F00C94DE098381948152
:103D00008C0D9D1D917021853285820F931FDC01E2
:103D10006C918EE791E00E942801BFEFCB1ADB0A7D
:103D2000E5CF90E080E0F801278130858217930786
:103D300010F00C94DE09218532850380F481E02D9A
:103D4000E80FF91FF170E20FF31F6081D80115969B
:103D50004D915C91480F591F5170240F351FF90187
:103D600060830196E0CF991B79E004C0991F9617F4
:103D700008F0961B881F7A95C9F780950895052E3F
:103D800097FB1EF400940E94D61E57FD07D00E9498
:103D9000E41E07FC03D04EF40C94D61E50954095BB
:103DA000309521953F4F4F4F5F4F089590958095E7
:103DB000709561957F4F8F4F9F4F0895EE0FFF1FB6
:103DC0000590F491E02D0994A1E21A2EAA1BBB1BC9
:103DD000FD010DC0AA1FBB1FEE1FFF1FA217B307D7
:103DE000E407F50720F0A21BB30BE40BF50B661FED
:103DF000771F881F991F1A9469F7609570958095B1
:103E000090959B01AC01BD01CF0108950F931F93C5
:103E1000CF93DF938230910510F482E090E0E0913F
:103E20009C05F0919D0530E020E0B0E0A0E03097E7
:103E300099F42115310509F44AC0281B390B2430A7
:103E40003105D8F58A819B816115710589F1FB01E6
:103E500093838283FE0111C04081518102811381CD
:103E600048175907E0F04817590799F4109761F07F
:103E700012960C93129713961C933296CF01DF91F2
:103E8000CF911F910F91089500939C0510939D056C
:103E9000F4CF2115310551F04217530738F0A9012D
:103EA000DB019A01BD01DF01F801C1CFEF01F9CFBC
:103EB00090939D0580939C05CDCFFE01E20FF31FEB
:103EC000819391932250310939832883D7CF209150
:103ED0009A0530919B05232B41F4209136013091B6
:103EE000370130939B0520939A052091340130913E
:103EF00035012115310541F42DB73EB74091380108
:103F000050913901241B350BE0919A05F0919B05E6
:103F1000E217F307A0F42E1B3F0B2817390778F0A0
:103F2000AC014E5F5F4F2417350748F04E0F5F1FFF
:103F300050939B0540939A05819391939FCFF0E016
:103F4000E0E09CCFCF93DF930097E9F0FC0132973C
:103F500013821282A0919C05B0919D05ED0130E085
:103F600020E01097A1F420813181820F931F2091CE
:103F70009A0530919B052817390709F061C0F09325
:103F80009B05E0939A05DF91CF910895EA01CE1742
:103F9000DF07E8F54A815B819E0141155105B1F7C4
:103FA000E901FB83EA8349915991C40FD51FEC17AE
:103FB000FD0761F4808191810296840F951FE901CC
:103FC00099838883828193819B838A83F0E0E0E0F8
:103FD00012968D919C9113970097B9F52D913C9174
:103FE0001197CD010296820F931F20919A0530916F
:103FF0009B052817390739F6309751F510929D0522
:1040000010929C05B0939B05A0939A05BCCFD383D7
:10401000C28340815181840F951FC817D90761F46D
:104020004E5F5F4F88819981480F591F51834083AC
:104030008A819B81938382832115310509F0B0CF5A
:10404000F0939D05E0939C059ECFFD01DC01C0CF60
:1040500013821282D7CFF894FFCF46455245584578
:10406000454E524D57424D52424D4350FF455049E7
:104070004549444552414557414541534552444DB8
:1040800053494D57524D52444754495253540000DE
:104090009E0580000000000028018800B500750121
:1040A000E600C400D800000000007F048800510230
:0240B0005002BC
:107E0000112484B714BE81FFF0D085E080938100F7
:107E100082E08093C00088E18093C10086E0809377
:107E2000C20080E18093C4008EE0C9D0259A86E02C
:107E300020E33CEF91E0309385002093840096BBD3
:107E4000B09BFECF1D9AA8958150A9F7CC24DD24C4
:107E500088248394B5E0AB2EA1E19A2EF3E0BF2EE7
:107E6000A2D0813461F49FD0082FAFD0023811F036
:107E7000013811F484E001C083E08DD089C08234E0
:107E800011F484E103C0853419F485E0A6D080C0E4
:107E9000853579F488D0E82EFF2485D0082F10E0AE
:107EA000102F00270E291F29000F111F8ED06801E7
:107EB0006FC0863521F484E090D080E0DECF843638
:107EC00009F040C070D06FD0082F6DD080E0C81688
:107ED00080E7D80618F4F601B7BEE895C0E0D1E017
:107EE00062D089930C17E1F7F0E0CF16F0E7DF06D8
:107EF00018F0F601B7BEE89568D007B600FCFDCFD4
:107F0000A601A0E0B1E02C9130E011968C91119780
:107F100090E0982F8827822B932B1296FA010C0160
:107F200087BEE89511244E5F5F4FF1E0A038BF0790
:107F300051F7F601A7BEE89507B600FCFDCF97BE46
:107F4000E89526C08437B1F42ED02DD0F82E2BD052
:107F50003CD0F601EF2C8F010F5F1F4F84911BD097
:107F6000EA94F801C1F70894C11CD11CFA94CF0C13
:107F7000D11C0EC0853739F428D08EE10CD085E9AC
:107F80000AD08FE07ACF813511F488E018D01DD067
:107F900080E101D065CF982F8091C00085FFFCCF94
:107FA0009093C60008958091C00087FFFCCF809118
:107FB000C00084FD01C0A8958091C6000895E0E648
:107FC000F0E098E1908380830895EDDF803219F02E
:107FD00088E0F5DFFFCF84E1DECF1F93182FE3DFCA
:107FE0001150E9F7F2DF1F91089580E0E8DFEE27F6
:047FF000FF270994CA
:027FFE00040479
:00000001FF
